:020000040001F9
:10F00000104A002011A00200DB03020013040200DA
:10F010007704020043050200BB0502000000000067
:10F020000000000000000000000000001934020091
:10F030006F070200000000003D3402009F0702003D
:10F04000454B0200CF070200B59502008F0C02006D
:10F05000E70E0200630F02004D9D0200C97C020012
:10F0600017100200EF1002008B2102009321020012
:10F07000FB210200372202009B3402004B400200B9
:10F080006F4002000D320200235402006B66020042
:10F09000B78C020067970200A9470200C19F0200D7
:10F0A000E79F0200F39F020035A0020037A0020094
:10F0B00039A002003BA00200000000000000000098
:10F0C0003DA002003FA0020041A0020043A00200B8
:10F0D00045A0020047A0020049A002000000000075
:10F0E0000000000000000000000000000000000020
:10F0F0000000000000000000000000000000000010
:10F1000000000000000000000000000000000000FF
:10F1100000000000000000000000000000000000EF
:10F1200000000000000000000000000000000000DF
:10F1300000000000000000000000000000000000CF
:10F1400000000000000000000000000000000000BF
:10F1500000000000000000000000000000000000AF
:10F16000000000000000000000000000000000009F
:10F17000000000000000000000000000000000008F
:10F18000000000000000000000000000000000007F
:10F19000000000000000000000000000000000006F
:10F1A000000000000000000000000000000000005F
:10F1B000000000000000000000000000000000004F
:10F1C000000000000000000000000000000000003F
:10F1D000000000000000000000000000000000002F
:10F1E000000000000000000000000000000000001F
:10F1F000000000000000000000000000000000000F
:10F200002DE9F04F82460FF24860A5B015461E4624
:10F21000D0E90023CDE91223002004910D900DF1D7
:10F2200050086FF0004900E03D440020ADF80200B6
:10F2300012AB4FF0FF3229460DF1020001F0A5F8A4
:10F240000746012F04DA2878471EBF41FF43FF0F0E
:10F25000BDF8020025280CBFA7F1010BBB46BBF18E
:10F26000010F0EDB2C4614F8011B0498D047002830
:10F27000049000F0F3800D98401CBBF1010B0D9041
:10F28000F1D1BDF80200252807D100200790089091
:10F2900009900A900B900C9005E00028C4D10D98BD
:10F2A000DEE240F0010015F8011F2029F9D02329E2
:10F2B0000DD02B2904D02D2906D030290AD00CE0FE
:10F2C00040F0020080B2EEE740F00400FAE740F0C0
:10F2D0000800F7E740F01000F4E72A290ED1316862
:10F2E000316051F8042B3160002A0F9204D551424D
:10F2F00040F004000F9180B26D1C11E000210F91CD
:10F3000009E00F99494505D001EB810302EB430168
:10F3100030390F916D1C2A78A2F130010A29F0D3FF
:10F3200029782E2903D04FF0FF310E911DE015F8FA
:10F33000011F2A2907D1316831606D1C51F8042B57
:10F3400031600E9211E000210E9109E00E994945BD
:10F3500005D001EB810302EB430130390E916D1CA6
:10F360002A78A2F130010A29F0D3ADF840000FF25B
:10F37000E840297801F026F808B115F8010B8DF85E
:10F3800042009DF84200682802BF2978682962205F
:10F3900005D06C2804BF28786C2803D171208DF823
:10F3A00042006D1C14A8069015F8017BB7F12500EA
:10F3B0002AD01C3800F0DB80001F022840F2D780E2
:10F3C000133800F0FC80093800F0D180801E00F076
:10F3D0006781401E00F03D81401E022840F2C78038
:10F3E000001F00F03681401F00F09280401E00F0A8
:10F3F000E680401E35D0C01E0BD0801E00F0DF809E
:10F40000C01E00F0DC806EE125208DF85000012048
:10F4100073E19DF842006C283068306014D050F8D9
:10F42000044B306005940E9F002F04D5204600F059
:10F43000D5FF074606E03A460021204600F0EAFFE5
:10F4400000B1071B089759E150F8042B306002A95E
:10F45000504600F03FFA002840F150814FF0FF3055
:10F46000FEE131683160002251F8040B3160002167
:10F47000CDE9020114A80590DDE902019142069F41
:10F4800008BF90424FF03C0C01D10E9AC2B100F07F
:10F490000F033033DBB23A2BA8BF2733ACF10102A4
:10F4A0000009BB54944640EA0170090900229142C8
:10F4B00008BF904204D0059A07EB0C039A42E6D3AA
:10F4C00007EB0C000590CCF13C010E9808918142AD
:10F4D00009DA401A0A904FF6EF71BDF84000084073
:10F4E000ADF840000AE1002840F108819DF8400095
:10F4F00000F01400102840F001810F98079A801A3C
:10F500000A9A801A401A0128C0F2F8800A90F5E0A1
:10F510009DF8420062281AD0682806D06A280CD0CC
:10F520006C281CD0712808D019E03068306050F881
:10F53000041B30600D980880E0E03068306050F8BF
:10F54000042B30600D98C117C2E90001D6E0306885
:10F55000306050F8041B30600D980870CEE03068C1
:10F56000306050F8041B30600D980860C6E03068C9
:10F57000C01D20F007023260D2E90001083232607B
:10F58000CDE90201002902D507982D210AE0BDF836
:10F590004000810702D507982B2103E0C00705D55D
:10F5A0000798202108F80010401C079014A807991C
:10F5B00008440590394602A800F098FB9EE09DF8AB
:10F5C00042006C280DD0712818BF6A2809D1306814
:10F5D000C01D20F007023260D2E90001083232601B
:10F5E00005E03168316051F8040B31600021CDE94C
:10F5F00002019DF84200682803D1DDE9020180B2D2
:10F600000BE0622803D1DDE90201C0B205E07428F5
:10F6100018BF7A2804D1DDE902010021CDE90201F9
:10F620009DF84000000732D5DDE902230020834227
:10F6300008BF82422BD047F02000782827D10798B6
:10F64000302108F80010401C411C079108F8007098
:10F650001DE09DF84200314600F005F9CDE90201B8
:10F66000DDE9022300218B4202DA07982D210AE00E
:10F67000BDF84000810702D507982B2103E0C007A1
:10F6800005D50798202108F80010401C079014A801
:10F69000079908440590394602A800F0A1FA2DE028
:10F6A0009DF842006C2809D0012007903068306036
:10F6B00050F8041B30608DF850101FE03068306047
:10F6C00001AA50F8041B3060ADF804100020ADF81A
:10F6D000060002A94FF0FF300E90504600F0FAF8F5
:10F6E00000280BD5BAE625208DF8500001200790A0
:10F6F000380003D088F80170022007900F9807990E
:10F70000401A0A99401A0899401A0B99401A099907
:10F71000401A0C99471A9DF84000400710D4202049
:10F72000012F8DF800000BDB3C4601236A4602A93D
:10F73000504600F005FE00287FF490AE641EF4D120
:10F74000DDF81CB0BBF1000F14AC0DD014F8011B98
:10F750000498D047002804903FF480AE0D98401CD8
:10F76000BBF1010B0D90F1D130208DF800000A9C07
:10F77000012C0ADB01236A4602A9504600F0E0FD95
:10F7800000287FF46BAE641EF4D1DDF820B0059C38
:10F79000BBF1000F0DD014F8011B0498D0470028CE
:10F7A00004903FF45BAE0D98401CBBF1010B0D9033
:10F7B000F1D130208DF800000B9C012C0ADB0123D5
:10F7C0006A4602A9504600F0BBFD00287FF446AE11
:10F7D000641EF4D105980899DDF824B04418BBF1F3
:10F7E000000F0DD014F8011B0498D0470028049096
:10F7F0003FF434AE0D98401CBBF1010B0D90F1D1DC
:10F8000030208DF800000C9C012C0ADB01236A4695
:10F8100002A9504600F094FD00287FF41FAE641E3C
:10F82000F4D19DF8400040077FF5FFAC2020012F68
:10F830008DF80000FFF6F9AC01236A4602A9504694
:10F8400000F07EFD00287FF409AE7F1EF4D1ECE4C9
:10F850000000000000000000686A6C747A4C000030
:10F8600025B0BDE8F08F622826D068281DD06A2810
:10F8700008D06C2827D0712804D0742823D07A2887
:10F880000CD020E00868C01D20F007000860D0E917
:10F890000023083008601946104670470A680A605D
:10F8A00052F8040B0A60002170470A680A6052F897
:10F8B000040B0A6000B20BE00A680A6052F8040BFD
:10F8C0000A6040B204E00A680A6052F8040B0A6059
:10F8D000C11770472DE9F44F0D4694B0D5F830A00C
:10F8E000BAF1000F804648BF6FF0004A00F0BEFD3D
:10F8F000696B401801900FF67820D0E90023CDE91C
:10F90000022395F83800400702D40198412805D217
:10F9100040200DF110090190002609E000F0ACFD37
:10F920005FEA0009F8D14FF0FF3056E1AAEB040A74
:10F93000BAF1010FC0F2CE801498018802AA0DF12D
:10F94000010000F0F1FD0028044600F1DE8014986B
:10F95000008810B9641E00F1D880A245C0F2BA80B8
:10F96000686901992218914280F0A2806E6340423A
:10F97000296A401AA969401A696A401AE969401A55
:10F98000A96A461A95F83800400710D42020012EA5
:10F990008DF800000BDB374601236A4629464046B6
:10F9A00000F0CEFC002840F0B0807F1EF4D1D5F8E6
:10F9B00014B0BBF1000F4F460DD017F8011BA8681B
:10F9C000C0470028A86000F0A080E86A401CBBF196
:10F9D000010BE862F1D130208DF800002F6A012F71
:10F9E0000ADB01236A462946404600F0A9FC0028AC
:10F9F00040F08B807F1EF4D1D5F818B0EF68BBF1D2
:10FA0000000F0CD017F8011BA868C0470028A86099
:10FA10007BD0E86A401CBBF1010BE862F2D13020D8
:10FA20008DF800006F6A012F09DB01236A46294621
:10FA3000404600F085FC002867D17F1EF5D1E868BC
:10FA4000A969D5F81CB04718BBF1000F0CD017F806
:10FA5000011BA868C0470028A86056D0E86A401C6F
:10FA6000BBF1010BE862F2D130208DF80000AF6AE3
:10FA7000012F09DB01236A462946404600F060FC5D
:10FA8000002842D17F1EF5D195F8380040070DD5EA
:10FA90002020012E8DF8000008DB01236A4629464C
:10FAA000404600F04DFC80BB761EF6D100266E610C
:10FAB000224668690DF10101484400F043FD686980
:10FAC000201868611498801C1490801E00880028FB
:10FAD0007FF42CAF686B6969401A296A401AA969DA
:10FAE000401A696A401AE969401AA96AA0EB010A3A
:10FAF00095F83800400710D4BAF1010F0DDB5446D9
:10FB0000A8682021C047A86010B94FF0FF365DE01B
:10FB1000E86A401C641EE862F2D16B694A462946D5
:10FB2000404600F00DFC0028EFD12C6A012C0ADBC6
:10FB3000A8683021C0470028A860E6D0E86A401CC9
:10FB4000641EE862F4D1AB69EA682946404600F0D9
:10FB5000F7FB0028D9D16C6A012C0ADBA868302198
:10FB6000C0470028A860D0D0E86A401C641EE86244
:10FB7000F4D1E868A969EB6942182946404600F0CB
:10FB8000DFFB0028C1D1AC6A012C0ADBA868302158
:10FB9000C0470028A860B8D0E86A401C641EE8622C
:10FBA000F4D195F8380040070ED5BAF1010F0BDB00
:10FBB000A8682021C0470028A860A6D0E86A401C99
:10FBC000BAF1010AE862F3D16E616E6304A881455F
:10FBD0001CBF484600F0F2FC304615B0BDE8F08F7F
:10FBE0002DE9F343054608462F696F2808BF08240E
:10FBF00005D041F02001782914BF0A2410243C26A6
:10FC0000D5E90023642818BF69289046994606D193
:10FC100000218B4203DAD8F1000869EB4909002082
:10FC2000814508BF80450CD1286B50B9082C38D1CC
:10FC300095F83800000734D530203B2687F83B0084
:10FC40002FE0701E00900646404649462246E317C4
:10FC500000F0F4FC02F13000C0B23A2803DB9DF85A
:10FC6000041051390818B855494640462246E31752
:10FC700000F0E4FC804689460020814508BF8045AD
:10FC800003D0E868B9198842DBD3082C09D195F86C
:10FC90003800000705D5B85D302802D0761E302028
:10FCA000B855B919E960C6F13C00296BA8618842D2
:10FCB00008DA081A28624FF6EF71288F0840288763
:10FCC000BDE8F38300290ED595F8381001F0140132
:10FCD000102908D1696B6A69891A2A6A891A0E1A69
:10FCE000012EA8BF2E62BDE8F38300002DE9F24F7C
:10FCF00004468EB0D4E90001CDE9020104AF9DF8BD
:10FD0000380040F0200BBBF1610F0AD0206B0028B7
:10FD100048BF062004D408BFBBF1670F01D1012002
:10FD200020636168C1F30A5040F2FF7290421CD117
:10FD3000080304BF2068002809D10320A0619DF8B2
:10FD4000380061381A2835D30FF2386108E00320F3
:10FD5000A0619DF8380061381A2828D30FF21C6181
:10FD6000E068032200F0EEFBBDE1012815DA204631
:10FD700000F0DBFC012810DB00250020BBF1610F47
:10FD80001FD1E16830220A708A1CE2609DF8382099
:10FD9000612A0CBF782258220FE0626840F2FE31DF
:10FDA00061F31E52451A62604FF0FF30E6E70FF232
:10FDB000C851D5E70FF2C851D2E74A706169891C72
:10FDC000616110B90026002584E1BBF1610F40F0AC
:10FDD0009880206BD4E900AB00284CBF2126461C3C
:10FDE000DDE902010022002300F0C2FC36B23ABF76
:10FDF0008BF00040CDE902A0CDE902AB06F101088D
:10FE00002D1FB8F1010F8DF810200DF1110736DB11
:10FE1000DDE902010022002300F0C2FC2FD21C21E8
:10FE200002A800F0D5FCDDE9020100F05BFDA8F1BD
:10FE30000708B8F1010F814609DB00F07FFD02469B
:10FE40000B46DDE9020100F091FDCDE90201F81D4C
:10FE5000072105E009F00F0200F8012D4FEA2919EA
:10FE6000B9F1010F01DB491EF4D5491E5CBF002228
:10FE700000F8012DF9D5C71DB8F1010FC8DA0DF151
:10FE80001100391AB142B8BF0E4636B230000DF13A
:10FE900011072FD4884206DA04A9014449780829B9
:10FEA000A8BF0F2100DA002104AA024400E0761E58
:10FEB00012F80139401E8B42F9D00F2904D104A950
:10FEC00001444A78521C4A70002802D504AF761CBF
:10FED0002D1D36B2701E0DD439180A783032D2B2C8
:10FEE0003A2A03DB9DF838303A3B9A18401E01F855
:10FEF0000129F2D5206B002840F1EC80701E2063B0
:10FF0000E8E0DDE902010022002300F031FC3CBF03
:10FF100081F00041CDE902012DB247F297506843CC
:10FF20004B49DFF8309190FBF1F52DB2C5F1070A8E
:10FF3000BAF1010F90461CDBDDE902675FEACA7087
:10FF400007D542464B463046394600F0CFFD0646BF
:10FF50000F464046494642464B464FEA6A0A00F081
:10FF6000C5FDBAF1000F80468946E7D1CDE90267A9
:10FF700024E0CAF1000A0026374F14E05FEACA7095
:10FF800007D542464B463046394600F0AFFD06469F
:10FF90000F464046494642464B4600F0A7FD4FEA11
:10FFA0006A0A80468946BAF1000FE7D1DDE902010D
:10FFB00032463B4600F06CFECDE90201BBF1660F14
:10FFC000216BDFF898900CBF05F10A000620461857
:10FFD000142EA8BF132630208DF810000DF1110744
:10FFE000012E3DDBDDE9020100F092FC07F1080182
:10FFF00004220A23B0FBF3F303EB8307A0EB4700D3
:020000040002F8
:10000000303001F8010C0A20B3FBF0F000EB800760
:10001000A3EB47033033521E01F8023DE9D1083EFD
:10002000012E01F10807DBDBDDE9020100F070FCC5
:1000300000F08EFC02460B46DDE9020100F096FC62
:1000400000224B4600F052FDCDE90201CAE700BF95
:10005000A0860100000024400000F03F84D79741B3
:100060000DF11100381A0DF1110702E0401E6D1E4E
:100070007F1C39783029F9D0BBF1660F08BF691CA5
:1000800004D0BBF1650F0CBF01210021226B8E183B
:1000900036B2B042B8BF064636B231001AD48142F9
:1000A00004DA785C3528A8BF392000DA30207A18C5
:1000B000521E00E0761E12F80139491E8342F9D023
:1000C000392802D1785C401C7854002902D57F1E63
:1000D000761C6D1C2DB29DF83810009533B23A464F
:1000E000204600F003F80FB0BDE8F08F2DE9F0478F
:1000F00086B006468A4690461D4600F012FF012D46
:10010000406A376B90F8009002DA01250FF27828E8
:100110004AF02000BDF93840662808BF641C12D0A0
:10012000672878D114F1040F7BDBBC4279DA96F8AA
:100130003800641C000702D4BD42B8BF2F4624B269
:100140003F1B48BF002724B2F068B169012C23DAB5
:100150004A1C30234354012F03DA96F83800000775
:1001600003D5F06800F80290521CE742B8BF7C4209
:1001700024B260427062E719AF42B261B8BF3D4637
:10018000F068B3692DB2F5612A464146184400F083
:10019000D9F9781BB062BCE022469542084416DAD1
:1001A0002A46414600F0CEF9B1696918601B012F5B
:1001B000B161706203DA96F83800000705D5F0687F
:1001C00000F80190F069401CF061B762A1E041467F
:1001D00000F0B8F9B06920182D1B012F03DA96F84A
:1001E0003810090703D5F16801F80090401CB06190
:1001F0002DB2AF42B8BF3D46F068B3692DB22A4672
:1002000008EB0401184400F09DF9B0692818B061AA
:10021000781B70627DE0BAF1610F14D14FF0700A63
:1002200016E0BD4204DA96F83810090758BF2F4689
:100230007F1E48BF0027BAF1670F14BF4FF0450A71
:100240004FF0650A04E0BAF1410F08BF4FF0500AC1
:10025000B169F368481CB061012F18F8012B5A549A
:1002600003DA96F83810090717D5F168431CB36113
:1002700001F80090012F10DB6D1E2DB2AF42B8BF08
:100280003D46F0682DB22A464146184400F05AF91E
:10029000B0692818B061781B7062F068B1690144D8
:1002A000200081F800A004D42B20487001F102083E
:1002B00004E02D224A7001F102086442002502AFD9
:1002C00008E00A22684600F045FE019807F8010B95
:1002D0006D1C009C21B20129F3DA022D06DA4AF0E6
:1002E0002000652804BF302008F8010B4DB93020EC
:1002F00008F8010B07E06D1E02A8405D303008F8D9
:10030000010B012DF7DAF068B1690844A8EB000091
:10031000F06196F8380000F0140010280DD17069D3
:10032000B1690818716A0818F1690818B16A0818E3
:10033000716B8842BCBF081A306206B0BDE8F08716
:10034000F8B504460D4616461F46002077B116F84C
:10035000011BA868A047A86030B1E86A401CE862A9
:1003600000207F1EF3D1F2BD4FF0FF30F2BD000040
:1003700000000000000000006E616E004E414E0063
:10038000696E6600494E46003000F8B504460D46D9
:1003900016461F4600F0EFFD3B46324629462046F2
:1003A00001B0BDE8F04000F0FCBD8268521C8260E4
:1003B000426832B10268531C036011704168491EE3
:1003C000416070470278C9B28A421AB11CBF10F866
:1003D000012FF9E718BF00207047FEE700F1010385
:1003E000810704D010F8011B89B18107FAD1026896
:1003F000B2F10131914311F0803F04BF50F8042F56
:10040000F6E710F8011B11B110F8011BFBE7C01A49
:100410007047FEE7C9B2830706D0521E22D310F8F8
:10042000013B9942F7D11FE0083A13D302F10402CD
:1004300041EA012141EA014150F8043B121F21BF6A
:100440004B40A3F1013C2CEA030C1CF0803FF3D09D
:10045000C9B2001F083210F8013B521E28BF91EAB2
:10046000030FF8D818BF0120401E704780B500F078
:1004700082FD012002BDFEE770B5054605F10F00C3
:10048000C408AFF30080E400A54232D2082C04D2A5
:10049000082402E0083000F091F8224802681100B8
:1004A0000CD1011D0A6802B31368A34238BF111DA5
:1004B000F8D310E01D68A5420DD2191D0B68002B62
:1004C000F8D11268011D00E0191D0B6893420CD091
:1004D0001D68A542F8D361B10D682A68A2F108032E
:1004E000A3420AD26A680A600FE000F07DFD00288E
:1004F000D0D1AFF30080002070BD2B190B60121B10
:100500006E685E600B681A602C60096800291DBF68
:100510004A68002A091D00210160AFF3008005F13F
:10052000080070BDD4BE002070B504460D461646C6
:1005300000F021FD324629462046BDE8704000F01B
:1005400023BDFEE762B38B0708D0521E11F8013BB2
:1005500000F8013B00F024808B07F6D1830740F0C0
:10056000208000BF103A07D330B4B1E83810103AF9
:10057000A0E83810F9D230BC530724BFB1E8081006
:10058000A0E8081044BF51F8043B40F8043BD207F0
:1005900024BF31F8022B20F8022B44BF0B780370E4
:1005A0007047083A07D3B1E80810083A40F8043B0E
:1005B00040F804CBF7D25307E4E7FEE700B97047F1
:1005C00038B5A0F108042068082833D310F0070FCD
:1005D00030D1AFF300801848416809B18C4203D292
:1005E0006160446017E019464B680BB1A342FAD32F
:1005F0000B68CD18AC421BD3A54204D12268D21897
:100600000A600C4607E04A681AB1236823449A42FC
:100610000ED362604C60616851B12268A3188B42AE
:1006200006D1002303600868801820604868606075
:10063000AFF3008031BD0000D4BE00201B4213D1B7
:10064000094236D12AB18446B0FBF2F002FB10C257
:10065000704700F0DFBCFCD30022002370470B0082
:100660000200002100207047904271EB030CF6D38A
:1006700070B5B1FA81F4B3FA83F52C1BA340C4F131
:10068000200532FA05F63343A2405FF00046E6400B
:1006900002E05B085FEA3202841A71EB030524BFB3
:1006A000204629467641F4D302000B003000002199
:1006B00070BD012ACFD970B5140C20D0B1FA81F4E5
:1006C000B2FA82F5C4F120046419B4F12006D6D33D
:1006D000B2405FF00044F440002502E052085FEAB7
:1006E0003303C61A71EB020E24BF304671466441D3
:1006F0006D41F3D302000B002000290070BD0C46B1
:10070000B1FBF2F102FB11452D0445EA1045B5FBA2
:10071000F2F402FB145580B240EA0545B5FBF2F055
:1007200002FB105240EA044070BD30B4436803F04D
:1007300000420121C3F313034360002B04BF03688D
:10074000002B08D10DE00368DD0F45EA4404446046
:100750005B000360491E4468E302F4D5C4F313034D
:10076000436043681A434260084630BC7047FEE766
:100770004FF4001C1CEB410F94BF1CEB430F09E02E
:1007800041EA030C50EA4C0C52EA0C0C03D2994299
:1007900008BF9042704714BF8B4282427047FEE709
:1007A0004FF4001C1CEB410F94BF1CEB430F09E0FE
:1007B00041EA030C50EA4C0C52EA0C0C03D28B4277
:1007C00008BF8242704714BF994290427047FEE7CB
:1007D00070B504460D466068C0F30A5040F2FF71E0
:1007E000884207D16068000304BF2068002817D042
:1007F000022070BD20B92046FFF797FF012866DA76
:10080000012D0FDB40F2FF71091A8D420AD3606897
:1008100000284CBF9FED2F0B9FED300B84ED000B9C
:10082000012070BD4142A942616806DA6FF31E5192
:10083000401941EA0050606040E0401E636845197D
:10084000012205F1350062F31F53352801F0004104
:10085000636003D361600020206070BD002015F14B
:100860001F0F04DA206823600022203562606A428C
:1008700012D0401E25688041C2F12003C0439D4034
:1008800045EAD07025686668D54006FA03F32B4325
:1008900023606368D340636062680A43B0F1004F2D
:1008A000626003D80DD12078C0070AD52068401CAB
:1008B0002060206828B96068401C60604FF0FF30FD
:1008C00070BD6068884204BF20680028F6D100200F
:1008D00070BD00BF000000000000F0FF000000003D
:1008E0000000F07FF446400D40EAC120490006D2E6
:1008F00000F014F8004248BF6FF00040604700F07D
:100900000DF84FF0004188428CBF084640426047D6
:10091000400D40EAC120490080F00D8040F00040C9
:10092000490DA1F58061491C05D4D1F11F0154BFC7
:10093000C840C01770474FF000007047010040F1F9
:100940000980F446404200F005F851F0004160474C
:10095000010000BF09D0B0FA80F18840C91CC1F580
:100960008461090501EBD02140057047F0B44FF0D8
:10097000004591EA030F44BF6B4000F04DBB00BF40
:10098000841A71EB030604D26E40001BB1411219A8
:1009900073414FF4001C1CEB410F34BF7CEB43064A
:1009A00084E00C0DA4EB1356362E7DDC012E43DCC7
:1009B00045EAC32343EA525312BFD20292025B08B4
:1009C000240545EAC12141EA5051D2EBC0209941AA
:1009D00025D407D1B0FA80F610FA06F164D00020D1
:1009E000203608E0B1FA81F6B140C6F1200220FAC3
:1009F00002F21143B0404FEAF474B4EB465434F0C1
:100A000001064FEA74040AD8D6F50016760D04F0F4
:100A10000044F04061FA06F25040F1404840C00AFC
:100A200040EA415021F0004128BF5FEA500550F1F3
:100A3000000044EBD12137E045EAC323DB0A45EA55
:100A4000C121C90AB6F120050EDD42EA0242120CAC
:100A5000C5F1200603FA06F6EB4042EA06056D42B0
:100A6000984161F100010DE062FA06F5F24055404F
:100A700063FA06FC82EA0C02F3405A406D42904150
:100A800061EB030111F4801F05D1641E620502D0E1
:100A90006D004041494121F48011430875F1004344
:100AA00050F1000041EB0451F0BC70471CEB410FCA
:100AB00015D223F0004352EA43060BD04FEA4C0C08
:100AC000BCEB410F04D80C0D661E342EB7DDEBE7EE
:100AD000801A994150EA410608BF0021E4E708BFA7
:100AE0001CEB430F28BF6FF00001DDE7B0B581EAD2
:100AF000030C0CF0004C40F2FF7515EA11541DBFB9
:100B000015EA1357AC42AF4239E0E41923EA4553E2
:100B100043F48013C90241F0004141EA505EC7022C
:100B20001100A7FB020200284FF00000EEFB01209D
:100B30004FF00001E3FB072118BF42F0010240180B
:100B400000214941E3FB0E01A4F580640F0302D2AA
:100B500052004041494154F101046CDD470872F1F3
:100B6000004250F1000051EB0451A1F580115CBF2F
:100B700041EA0C01B0BD4CEA05510020B0BD05EAC8
:100B80001357AC4214BFAF4241E050EA410E1CBFC4
:100B900052EA430E02E061460020B0BD24423C44CC
:100BA0001BD15FEA070EF6D0090302BF0146002001
:100BB000AEF1140EB1FA81F7AEEB070401FA07FEAD
:100BC0000C37C7F1200100FA07F7C8404EEA000EC3
:100BD00023EA455343F48013A2E733F00043B3FA0A
:100BE00083F704BFB2FA82FE77440B3FE41BB7F1F0
:100BF000200E2FBF02FA0EF3BB40C7F1200E22FADF
:100C00000EFE38BF43EA0E03BA40641C82E750EA86
:100C1000410E14BF52EA430E6FF000014FF400176B
:100C200017EB430F8ABF194617EB410FB5E74CEAA4
:100C300005510020B0BDD4F10104B4F120070FDA52
:100C4000C4F12007520828BF42F0010210FA07F54C
:100C500001FA07F7E1BF2A43E0403843E1400FE0E3
:100C6000352C98DCC7F1200452EA400220FA07F242
:100C700018BF42F0010231FA07F0A1400A430021F7
:100C800072F1004250F1000051EB0C01B0BDFEE7E3
:100C90002DE9F04140F2FF7581EA030C0CF0004CA5
:100CA00015EA11541DBF15EA1357AC42AF42E9E0F3
:100CB000BC41C1F31301C3F31303801A994143F4F8
:100CC000801304D2641E4000494180185941C90272
:100CD00041EA5051B1FBF3F603FB1611A2FB067576
:100CE000D7EBC020A94102D2761E80185941C90213
:100CF00041EA5051B1FBF3FE03FB1E11A2FB0E753E
:100D0000D7EBC020A94103D2AEF1010E80185941A2
:100D1000890241EA9051760546EA8E2EB1FBF3F640
:100D200003FB1611A2FB0675D7EB8020A94102D266
:100D3000761E80185941C90241EA50514EEA060E0A
:100D4000B1FBF3F603FB1611A2FB0675D7EBC0202F
:100D5000A94102D2761E80185941C90241EA505178
:100D6000B1FBF3F703FB1711A2FB0735D3EBC02050
:100D7000A94167F100070CBF004247F0010766F385
:100D8000D5274FEA1E31B80814F5806414DDBD077D
:100D900075F1004250EB0E5051EB045111F5801FDC
:100DA0005CBF41EA0C01BDE8F0814CF07F6141F08D
:100DB000E0410020BDE8F081BD076D0840EA0E501B
:100DC00041F48011D4F10104B4F120060ADAC4F12F
:100DD00020060200E04001FA06F3E1401843B24069
:100DE00015430EE0342C14DCC6F1200445EA40051E
:100DF0006D0820FA06F2154321FA06F0A1400D43D2
:100E0000002175F1004250F1000051EB0C01BDE8EA
:100E1000F08100205FEA0C01BDE8F081CFB99218A3
:100E20005B41B3FA83F704BFB2FA82F6BF190B3FF6
:100E3000B7F120062FBF02FA06F3BB40C7F1200628
:100E400022FA06F638BF3343BA401CB1E419641ED7
:100E50002FE77F4231F00041B1FA81F404BFB0FACC
:100E600080F6A4190B3CB4F120062FBF00FA06F15E
:100E7000A140C4F1200620FA06F638BF3143A04055
:100E80003C1B16E7AC421ABF05EA1357AF4214E009
:100E900050EA41061CBF52EA4306BFE750EA410749
:100EA000304661461CBF41EA0551BDE8F08152EA77
:100EB000430C08BFC143BDE8F08100204FF4001689
:100EC00016EB410F98BF16EB430F08BF16EB410F0F
:100ED00024BFC14305E016EB430F0CBF61464CEA4B
:100EE0000551BDE8F081FEE780B5134800F0FEF83B
:100EF0000FF24C020FF244010160426241600FF2B6
:100F00004402826381600FF24402C1600161416169
:100F100081618162C16201634163C26301644164B2
:100F200001BD10B5044800F0E1F80446206808B996
:100F3000FFF7DAFF204610BD7441002000000000DA
:100F40002E00000066616C736500000074727565A8
:100F50000000000091FBF2F303FB1211C0E9003125
:100F60007047FEE710B50446DFF8180000F0BEF841
:100F700050F8240010BD80B5DFF8080000F0B6F886
:100F8000806902BD0841002030B430B90FF248003A
:100F9000D0E90045C2E900451BE00170012030BCEA
:100FA000704730B431B90FF23800D0E90045C3E9D9
:100FB00000450EE01AB930BC6FF00100704708B16F
:100FC0000A7802800978481E804130BCC043C00FB7
:100FD0007047002030BC7047000000000000000097
:100FE00000000000000000000749086808B1002068
:100FF00070470648C008C00008600549C908C90014
:10100000091A0160704700BFF0BE0020174A002097
:10101000104C00207047FEE7841A71EB030603D2E0
:10102000001BB141121973414FF4001C1CEB410F1E
:1010300034BF7CEB430443E00C0DA4EB1356352E78
:1010400050DC45EAC323DB0A45EAC121C912B6F1E7
:1010500020050DDD63FA05F6EB4086EA0305124232
:1010600018BF45F00105C01851F100010CD213E082
:1010700062FA06F5F2405540F3415A40B340F3405E
:101080005A408018594107D349085FEA30005FEAA7
:10109000350528BF45F0010501F58011420875F1BD
:1010A000004250F1000041EB0451F0BC4FF4001C31
:1010B0001CEB410F38BF70470020090D0905704730
:1010C0001CEB410F10D252EA43060BD0BCEB410F90
:1010D00005D80C0DAB43661E342EB5DD02E0AB43E4
:1010E00080185941F0BC7047F0BC70477047FEE76C
:1010F000DFF8DC1B0A78104308707047DFF8D01B5C
:101100000A7822EA000008707047DFF8C41B0978EB
:10111000084018BF0120704738B504460025DFF8A5
:10112000B40B00EB8500416808001CBF20468847CF
:101130006D1C082DF3D331BD81884FF6FF729142AB
:1011400003D0008810B1012000E00020C0B2704739
:101150002DE9F0410C464FF4805100EB010800F1FD
:1011600008061546002702200FE0DFF8100CB268D1
:101170008169914238BF11468161708806EB800118
:1011800001F10C062188C01C4018464520800AD277
:10119000306810F1010F06D03046FFF7CDFF002870
:1011A000E3D10127E9E705B12F70BDE8F08102899D
:1011B000CB1C9A1802814289511AC91E418170477D
:1011C00080B5002000900223DFF8B00B0FF204027C
:1011D00001690AE0DEC0ADDEFF011EF180B500212D
:1011E0000091022301460FF20C02DFF8940B00F08D
:1011F000EBFE02BDDEC0ADDEFE011EF130B5C01C4F
:1012000080B240F2FE32904201DB092030BD002264
:10121000DFF8703B03EB02131C786CB91C895D8905
:1012200024182C19A4B2B4F5806F05DA0A80598904
:1012300040185881002030BD521C022AE8DB0720EC
:1012400030BDDFF8842B02EB01114A89101AC01E51
:101250004881704770B5DFF8702B0C4602EB001028
:101260002168456819B1488801EB800005E005F167
:10127000080604E0708806EB800000F10C064FF4CD
:101280008050284486420BD2306810F1010F07D0FD
:101290003046FFF751FF0028ECD02660012070BDDA
:1012A000002070BDF8B505460C466968DFF8CC6AC9
:1012B0000A0026D0DFF8C83A1F680846B84224BFA3
:1012C0005B6883421DD311F0030202BF2A89338970
:1012D0009A4202BF2A688B689A4212D10021DFF835
:1012E000E82A02EB0112526882423EBF4FF480535B
:1012F000D218904203D3491C0229F0DB1BE0218065
:1013000011E0002020800020009020886946FFF72F
:10131000A1FF50B10098296880688842F5D10098F3
:101320006860308928810120F2BD2088401C20801F
:1013300080B20228E7DB0020F2BDF8B504460D4676
:1013400016461F4600F0D8FC08B90220F2BD002E58
:1013500018BF002F05D10520F2BD3860B888401CA9
:10136000B880B888022821DADFF8181A0001085C72
:101370000028F3D1B8883946FFF76CFF0028ECD07D
:101380003868002C1EBF828823889A42F2D1002D33
:101390001EBF02882B889A42ECD181683160706050
:1013A000DFF8280A008930810020F2BD0A20F2BD52
:1013B0000168DFF81C2A02F13803994202D0083193
:1013C00001607047026070472DE9F041DFF8047A50
:1013D0000C460346796F0020042982B090462ED235
:1013E000DFF8EC69756CC4F10802AA4227D3386FA4
:1013F000401800F003001C214843384419461C22C1
:10140000FFF7B0F8786F401C7867BCB1306C4019BA
:1014100000F0070006EBC0000090002708EBC702B1
:101420007F1CD2E90001009AC2E900016846FFF77B
:10143000BFFFA742F2D3706C201870640120BDE892
:10144000F6812DE9F04700240025A0460027DFF8AB
:101450002C69DFF88499D9F80000DFF8803900EBB7
:101460000730691C02681FFA81FADFF85C199A429A
:1014700001EB051127D14268DFF86439D21A02D096
:10148000521E0AD01FE00A70486001F10E020831B6
:10149000FFF75EFE44F002042AE05FEA080206D08D
:1014A00002220A70554632694A6002220A8130617E
:1014B000002206F11401FFF74BFEB08A02280CBF90
:1014C000042008201EE0002250F8223013F1010F02
:1014D0000CD1521CB2F5806FF6D3326952B10222A0
:1014E0000A7048600A817580554608E0032008703C
:1014F000554608E030614FF001080220B08244F008
:10150000010400E004437F1C032FA4DBE0B2BDE82C
:10151000F08710B582B00C460021009101230146EE
:101520000FF6C402DFF8580800F04EFD08B10E2097
:1015300016BDDFF8941801EB041101208873002018
:1015400016BD10B5DFF83448DFF83818608801EBB5
:101550000011DFF884088A893AB94968002301221A
:1015600000F06FFD0421217010BD052121700023C2
:101570000221A18201222169BDE8104000F061BD75
:1015800080B5DFF84808416849884268CB1C0321D0
:1015900001709BB2002100910169808A01EB8001FA
:1015A00023E680B5DFF8D407011D4088FFF752FE1F
:1015B00010B1BDE80140E3E7BDE80140C1E700002C
:1015C000DFF8B807DFF800180278072A00D970475B
:1015D00010B5DFE802F0042E2E151D2A2A2C0289F0
:1015E000521C02810022428002731301CC5C631EF4
:1015F0009B418418521CDB0F022AA372F5DB16E014
:1016000042685288818AD21C5118818202210FE0DF
:101610004388026901EB03114B6803614A60828AC7
:101620000A8102218182062102E0072100E00121D6
:10163000017010BD70B502460C460F201AB100F0C3
:10164000D6FA012070BD2179DFF87C57DFF82C67CE
:1016500003293CD8DFE801F002061E2AFFF7B0FD9F
:10166000012121E029780020022907D1040128194D
:101670004068FFF7B3FD0021295528E0297C0120AF
:101680000229F3D00220FFF733FD00F0B0FA41F653
:101690001D5070BD3169DFF840070023012200F0C2
:1016A000D0FC0221B1820021217110E03069FFF7E6
:1016B00095FD7188326905EB01114B6833614A6011
:1016C000B28A0A810222B28200220A70227110B10B
:1016D00000F08DFA0E2070BD2DE9F0410C4682B06D
:1016E000618ADFF8E42602EB011528B1E18828467B
:1016F000FFF75DFD01207FE068682989DFF88086BB
:1017000000EB8106207C062870D8DFE800F011523B
:101710001D2C04636C000020906202F12001A0697E
:10172000506202F12400FFF7BDFD08B90A2063E012
:10173000002000900123221D314600F05FF80221B5
:101740002174A0B30E2652E000200090012304F182
:101750000C0206F1080100F051F8A17D00290CBF30
:101760000121032132E0DFF86806416C002741B116
:10177000026C00EBC207521C02F00702491E026411
:10178000416400200090A08ABB883A6806EB800183
:1017900000F034F8A18ABA885118A182A17D491EAF
:1017A000A175C9B209B9012121740028CAD1002646
:1017B00021E000200090012304F10802311D00F017
:1017C0001DF8217803290CBF05210621002821746A
:1017D000B8D1ECE7118C906AFFF79BFE0646062015
:1017E000207426B907E041F61D5600E00F26E18877
:1017F0002846FFF7DCFC3046BDE8F681404600F0A5
:10180000E3BB000010B508B1012010BDDFF86C4546
:10181000207B00281ABF00202073FFF7D1FE21781B
:10182000DFF8A405491E062935D8DFE801F0041BBE
:101830001E2134242D0000216218937A3BB100232D
:10184000937200EB011293890BB9927B4AB9491C40
:101850000229F1DB002020706080606041F61D509D
:1018600010BD6180BDE810409BE6BDE8104087E6F2
:10187000BDE8104065E606212170618800EB01108B
:101880004068BDE81040A9E4072020700020606097
:10189000BDE8104094E40F2010BD00002DE9F04198
:1018A000DFF83055296F1C2461436E188AB03178F7
:1018B000491E052941F61D5851D8DFE801F0030EF5
:1018C0000E12124D3146FFF7B5FE002800F0A4803D
:1018D000404546D10020019053E03146FFF7FCFE21
:1018E000F3E708B10120F3E73079C8B1022801D04D
:1018F00002D32FE04046E8E7DFF8E8743B4606AA4B
:101900000021B01DFFF719FD20B9B9880798FFF72E
:1019100000FE02E00021C7E900110A28D5D1E9E75D
:1019200006A80021002200230EC0F068069005A939
:1019300006A8FFF7B7FC48B107988188F1800188B5
:101940003181BDF81410FFF7E4FD00E00A20022108
:101950003171BAE70F20B8E7FFF754FFB5E70F2062
:10196000B6E701903078022818BF032809D1DFF8C4
:101970006004B27D016C89180164B27D416C891AE2
:1019800041643078401E05282CD8DFE800F028207C
:10199000110C0503052023E0042000F040F800208E
:1019A000ADF80E001EE0032000F039F8308911E098
:1019B000022000F03AF8ADF80E00F0680290307C9A
:1019C00006280CBF012000208DF810000AE001203D
:1019D00000F02BF8ADF80E00F068029002E0002055
:1019E0008DF800006846FFF797FB286F60431C21C5
:1019F000284400F0C7FB686F58B1296F491C01F0FB
:101A00000301401E2967686703D00020FFF746FFE7
:101A100002E00420FFF772FB0AB0BDE8F0818DF808
:101A20000000F088ADF80C0070478DF80000308998
:101A3000ADF80C00B088704780B50420FFF765FB57
:101A400030B90420FFF754FBBDE80240002025E731
:101A500001BD084622E72DE9F041044688B00D4655
:101A60001646984600F048F9002708B9022070E0B1
:101A70000DB905206DE028884FF6FF7188421ABF26
:101A800068880028042064D028896968BC4601E081
:101A90000CF1010C844506D211F83C2012F003022F
:101AA000F6D0032055E07EB9002205E001EBC20329
:101AB000521C9B88DF19BFB28242F7D36946384671
:101AC000FFF79CFB20B144E03088ADF80000778838
:101AD000DFF8F8628DF8048000208DF81400BDF85E
:101AE0000000ADF8160028898DF81A000320ADF823
:101AF0001800B069401CB0610490B8F1030F288849
:101B0000ADF80C006888ADF80800ADF80A7004D193
:101B100004208DF81400206807900020ADF80E0016
:101B20006A68298901A8FFF74FFC30B9BDF8001099
:101B30003846FFF786FB08200BE03CB100206060D0
:101B4000049820600020A07230892081FFF774FF84
:101B5000002008B0BDE8F0815E490A78082A01D16A
:101B60000C20704701EB82035860501C0870002065
:101B70007047000000B58DB007A8142100F006FBE7
:101B800000F0BAF8F8B90120FFF7BFFA00282BD10E
:101B90000120FFF7ADFA00F0C6F901208DF8000032
:101BA000FFF74FFC0B281BD8DFE800F006110611E9
:101BB0001A1708171A1315130B2016E00220FFF747
:101BC00097FA00F014F807A8FFF7A6FA0CE0002037
:101BD00004E0032002E0022000E001208DF8040070
:101BE00000F0ADF8FFF728FF00200DB000BD012088
:101BF000FFF784BA38B504000D4618BF002D01D197
:101C0000052032BD6946FFF74DFB78B1BDF80020D5
:101C10006D49606801EB02118A89521C8A81286033
:101C20000C3068600120A072002032BD0A2032BD55
:101C300010B5040082B001D1052016BD6946FFF73A
:101C400031FB88B1BDF800105F4800EB01108189BD
:101C50000A001CBFA27A002A04D0491E81810020FC
:101C6000A07216BD062016BD0A2016BD38B5044662
:101C70000D4600F041F808B9022032BD0CB905202C
:101C800032BD69462846FFF7B9FA18B9BDF8001009
:101C90002180658032BD10B500F02DF808B9022012
:101CA00010BD0CB9052010BD218803290DDA464B63
:101CB000608803EB01125289121AD21E05D4FFF775
:101CC000C0FA00202080608010BD042010BD0000FC
:101CD000FABE002058BD002002230AE0002A1CBFE3
:101CE0000223FFF7B8BE0520704708B905207047EA
:101CF00003230022AFE604460220FFF706BA10B520
:101D0000044688B0FFF7F8FF08B9022015E04FF647
:101D1000FF70844208BF04200FD005208DF800001A
:101D2000ADF8064001208DF8040000F008F818B165
:101D3000FFF782FE002000E0082008B010BD00225E
:101D400000216846FFF740BB00B587B0FFF7D4FF1E
:101D500008B902200FE006208DF80000FFF7EFFF22
:101D600040B11A48017809B101210173FFF764FEFF
:101D7000002000E0082007B000BD000010BE0020D9
:101D80000042002028BD002003B581B002A901A8AF
:101D9000FFF7D3FA0EBD01B513460A466946002087
:101DA00004E001B513460A4600216846FFF7C5FA6C
:101DB00002BD002818BF002901D105207047006826
:101DC000086000207047000028BD002010BE0020E1
:101DD00034BB0020A0B9002000420020DEC0ADDEF0
:101DE000FE011EF1CCBE00200000FFFF7FB50246C1
:101DF0006846002300240025002678C0107A0128B8
:101E000002D0022808D012E08DF80030106902904C
:101E1000908AADF80C000AE001208DF80000D3890B
:101E20009089C01AADF808009089ADF80A00506892
:101E3000019068461268926890477FBD48B1DFF80C
:101E40002813884205D3DFF82413884201D20120E9
:101E5000704700207047DFF81803416E491E416645
:101E600004D1C4490A7802F0FD020A70016E491CCF
:101E7000042908BF002101667047BD48016E182281
:101E800051434318406E00B9704710B5187A0128C5
:101E900002D0022811D01DE0DC8A998AD8680A1B7A
:101EA00000EB8401B2F5806F1869A8BF4FF480621F
:101EB00092B200EB840029DF01E0988928DF112825
:101EC00007D1AC48017801F0FD0141F00401017037
:101ED00010BD20B1BDE810400921184686E710BDAD
:101EE000A44801780622114203D141F00201017099
:101EF000C3E7704738B504469D48416E042901D1B7
:101F0000002032BD026E8A18042A28BF121F491C05
:101F100041661821514345181821284600F032F92E
:101F20002560012032BD2DE9F04390488E49401ACA
:101F30004FEA10199048056815F1010F4B4602D180
:101F40008E48006805038B480178CA0739D40026FB
:101F50008B4A08E03701D459002C1FBFD7197F687E
:101F6000002F5B1E761C4E45F4D300261FE002EBCB
:101F70000718D8F80040002C1CBFD8F80440002CEB
:101F800005D198F80D40A4453CBFA446BE467F1C31
:101F90004F45ECD34FEA0E6402EB1457761C7D607C
:101FA0003C7B4FEA043CCCF1000C65443D609E4212
:101FB00004D24FF0000CB6460027E9E741F00101DA
:101FC00001700020BDE8F083F8B500F071F801D48D
:101FD0000120F2BD2046FFF731FF08B90220F2BD13
:101FE000002E18BF002D01D10320F2BD16F0030012
:101FF00008BF15F0030001D00620F2BD206885421D
:1020000022BF606805EB8701884201D20520F2BD3E
:10201000380001D10420F2BD6846FFF76BFF08B914
:102020000720F2BD009906984860009804600120DE
:10203000009908720098C660009805610098878230
:1020400032E0F8B500F034F801D40120F2BD2046AA
:10205000FFF7F4FE08B90220F2BD0DB90320F2BD6E
:10206000280501D00620F2BD2068854222BF6068A5
:1020700005EB0631884201D20520F2BD300001D1C6
:102080000420F2BD6846FFF735FF08B90720F2BD0E
:102090000098476000980460022000990872280B9D
:1020A0000099888100980682FFF71AFF0020F2BD90
:1020B000044630480078C0070D4616461F46704754
:1020C00008B9032070472A49496E01600020704713
:1020D00038B5274A0146106E18235843254B1C7803
:1020E000A507104433D5022902D0032921D038E0B6
:1020F00000215970017A01290CD0022931D181893E
:10210000028A491C8181C189491CC18189B29142DD
:1021100027D10CE0C18A828A531AB3F5806FA8BF19
:102120004FF480635918C18289B2914219D10021BC
:1021300008E05978491C5970C9B2042911DB002103
:1021400059700821FFF752FEFFF785FE09E060078E
:1021500007D504F0FB001870516E11B140F0020079
:102160001870BDE8314088E600420020104200208F
:1021700018BA0020F8BE002014100010140000103F
:1021800000420020002200F009B8FEE7002200F023
:1021900039B8FEE762F30F2262F31F42401810F0D5
:1021A000030308D0C91A1FD3DB0748BF00F8012D6D
:1021B00028BF20F8022D130030B4144615461039FC
:1021C00028BF20E93C00FAD8490728BF20E90C00C5
:1021D00048BF40F8042D890028BF20F8022D48BFD1
:1021E00000F8012D30BC7047C91818BF00F8012D48
:1021F000CB0728BF00F8012D7047FEE762F30F22DE
:1022000062F31F4200B500BF130096469446103992
:1022100028BFA0E80C50FAD85FEA417C28BF0CC068
:1022200048BF40F8042BC90728BF20F8022B48BF3D
:1022300000F8012B00BDFEE72DE9F04304461546EA
:1022400085B088469946A80000F0FAFB06001AD02F
:102250004C2000F0F5FB070012D03E6300200390F5
:1022600002974B460D9801902A460C9800904146E3
:10227000204600F00DF8384600F04EF8012004E04A
:10228000304600F001FC4FF0FF3005B0BDE8F083B0
:102290002DE9F8430A9C80460F461546206B994667
:1022A000A522A900FFF7AAFF206B00EB8500001F05
:1022B000C50804F1340667B10020395C221882F8A1
:1022C0003410395C11B1401C0828F6D30020F0719D
:1022D00001E000203070089F042F28BF0327E76229
:1022E000B760F060201D00F0E0FB04F1180000F082
:1022F000DCFBC7F10400A06124616462002030614E
:1023000030754A464146E80000F00AFC2060099812
:1023100000B10460BDE8F1832DE9F843044600F004
:1023200031FCDFF88456DFF88486286F401C28676C
:102330001426686928BB6C61286F012829D1002701
:1023400006FB07F02844183000F0A2FB7F1C042F86
:10235000F6D305F18407384600F09AFB05F1980999
:10236000484600F095FB284600F092FB404600F0FE
:102370008FFB08F1180000F08BFBAF66C8F81490D3
:1023800007E0A86F28B9E06A6969C96A884228BF6E
:102390006C61D8F83800401CC8F838000122E06AA7
:1023A000696F824000F0ADFA00F0F4FBA86F20B135
:1023B00000F095F901D200F011F8BDE8F18310B5F5
:1023C000040008D000F03CF80021204600F0F0FAAC
:1023D00000F054F808B900F001F810BDDFF8441619
:1023E0004FF08050086040BFBFF34F8FBFF36F8F37
:1023F00070471CB5DFF8B4450FF23C6104F14000B2
:1024000001900023002000903C220FF23D30FFF7A6
:1024100013FF012808BF00F0CFFB01280FD12020B7
:1024200080F311884FF0FF30E0630120DFF8F015F2
:1024300088670020E062BDE8134000F087BB13BD51
:10244000DFF8DC05D0F88010491CC0F88010704718
:10245000DFF8CC154A6F0020022A4A69D26A28BFE9
:1024600001201AB98969022900D208B100207047F9
:10247000DFF8A805C16BC06A081A7047F8B500F00C
:1024800081FBDFF82455D5F88000401EC5F8800098
:102490000026D5F88000002400283BD1286FD0B951
:1024A00038E0E868C66806F1180000F026FB301D29
:1024B00000F023FBF06A696F00F087F8696750430A
:1024C0002844311D00F022FAF06A6969C96A88421D
:1024D00024BF0120E86728680028E2D10EB100F08F
:1024E0008DF9DFF83865376B3FB100F020F808B19F
:1024F0000120E8677F1EF8D13463E86F50B1DFF840
:1025000024154FF080500124086040BFBFF34F8F67
:10251000BFF36F8F0FE100E000BFDFF80005C06A76
:102520007047DFF8F814CA6A8018C86270472DE94E
:10253000F041DFF87444DFF8E464D4F8800000254B
:10254000002839D1F06A10F10108C6F82C8008D1B2
:10255000A06E7169A1667061706B401C706300F0C1
:102560004DF9F06B80452AD318E0381D00F0C5FA0C
:10257000B86A18B107F1180000F0BFFAF86A616F85
:1025800000F023F8616750432044391D00F0BEF984
:10259000F86A6169C96A884228BF0125A06E00688F
:1025A00010B94FF0FF3005E0A06EC068C7687868CA
:1025B0008045DAD2F06302E0306B401C3063E06F9C
:1025C00000B101252846BDE8F08101228240114377
:1025D0001422704710B5DFF84844D4F8800010B1D9
:1025E0000120E06710BDE0676069006B0168B1F130
:1025F000A53F04BF4168B1F1A53F07D18168B1F1A2
:10260000A53F04BFC068B0F1A53F05D0606900F1E7
:102610003401606900F0DCFD606FB0FA80F06FF0AB
:102620001301484320444FF42171084400F108028B
:10263000416849684160914204BF4968416040680F
:10264000C068606110BD10B50C46DFF85C134969C5
:10265000183100F039FAFFE72046BDE810400121AB
:10266000A6E138B50C46DFF8401349691546183124
:1026700000F01EFA0DB14FF0FF3429462046BDE8A8
:10268000344095E138B5C068DFF89453C46804F16C
:10269000180000F032FAD5F8800030B900F039F9AE
:1026A00000F010F800F0AAF804E004F11801284640
:1026B00000F0FEF900F013F802D20120E86732BD05
:1026C000002032BDE06A696F01228240114314226A
:1026D000696750432844211D183000F0E9B9686942
:1026E000E16AC06A88427047DFF830134A6B0260C3
:1026F000C96A41607047F8B504460D4600F042FAD9
:10270000DFF8A802C16A62682E688B1A16F1010F01
:102710000CD0406B2768B84201D091420AD2B34234
:1027200006D2F01A28602046FFF7DEFF002402E000
:1027300000202860012400F02DFA2046F2BDDFF8C9
:10274000E0120120C867704770B5DFF8D042DFF8AB
:10275000D05211E000F016FAE068C668301D00F0B3
:10276000CCF9286F401E2867E86E401EE86600F02E
:1027700011FA304600F038F8E86E0028EAD1A8696E
:10278000022800F011F800F0A0FCFFF761FE02281B
:10279000F2D3FFF755FEFFF75BFE022828BF00F0DB
:1027A00086FDFFF76BFEE7E709D3DFF878124FF0FD
:1027B0008050086040BFBFF34F8FBFF36F8F7047EB
:1027C000DFF8E4110A680120002A04BFCA6F002A5A
:1027D00001D000207047DFF844229269096F491E3A
:1027E0008A4208BF0220704710B50446206B00F0F3
:1027F0004BF92046BDE8104000F046B96A48DFF8C2
:102800001C22816E096811B94FF0FF3003E0806E21
:10281000C068C0684068D0637047DFF80402816F09
:1028200009B901207047D0F8800008B9022070472C
:1028300000207047F8B504460020002C31D0E16A32
:10284000DFF8DC516A69D26A914224D2A06900287B
:1028500004D46869C06AC0F10400A06100F093F874
:1028600015D100F056F8012740B900F086F829B9D3
:10287000696F07FA00F021EA000068676869C06ABA
:10288000E06207FA00F2696F00F03BF808E068695F
:10289000C06AE06204E0E16B6A69D26A914200D2E8
:1028A0000120F2BDF8B5044600204CB3216CE26A69
:1028B000E36B491E9A42216422D009BB00F029F83B
:1028C00001251426DFF8587158B9E06A06FB00F1BB
:1028D0003944896929B9796F05FA00F021EA0000C5
:1028E0007867E06BE062C0F10401A16105FA00F2D3
:1028F000796F114379677043384400F006F801207E
:10290000F2BD1143696770432844211D183000F05F
:10291000CFB8201D00F0F1B870B504002CD0E06BEA
:10292000884238BF0846E16A814225D0226C012ADC
:1029300022D1A269DFF8E850E062002A5CBFC0F152
:102940000400A06100F01FF816D1FFF7E2FF28B9DC
:1029500000F013F811B9696F00F066F80122E06A1F
:10296000696F8240114369677043211D2844BDE8A7
:102970007040183000F09CB870BDE06A06FB00F1B2
:1029800029448969704714267143606929441831C4
:10299000884270472248416919B141690A6C521C4A
:1029A0000A6440697047000078B800207CBB0020B2
:1029B0002DE9F041194C1A4DE66A074668698846C8
:1029C000001D00F09AF820B96869696FC06A00F0CC
:1029D0002BF817F1010F0AD1B8F1000F07D0686981
:1029E000011D04F11800BDE8F04100F061B868690C
:1029F000BF194760B742686905D2011D6069BDE82B
:102A0000F04100F061B8011DA86E00F05DF8E06BC8
:102A1000874238BFE763BDE8F08100007CBB00203F
:102A200078B8002004ED00E0012202FA00F021EA6B
:102A3000000068677047000049444C4500000000F2
:102A400038B50546002415F0070F04D005F108003D
:102A500005F00701451AFFF7F3FC0C48416821B95E
:102A600000F11001C908C900416045F6F87301681A
:102A70006A189A4238BF914202D2436802605C18D9
:102A8000FFF7FCFC204632BD70470000104C0020D0
:102A900000F1080141604FF0FF31816000F1080151
:102AA000C160016100210160704700210161704730
:102AB00042684A6093688B609368596091600861CE
:102AC0000168491C0160704730B50A6812F1010FB6
:102AD00008BF036907D000F1080300E023465C68E3
:102AE0002568AA42FAD25A684A6091608B605960A0
:102AF00008610168491C016030BD43680169826852
:102B00009A60836842685A604A68824204BF826859
:102B10004A60002202610868401E08600868704729
:102B200010B50FF290031B68A0F12004A161E361CE
:102B300022600FF2110161616FF0020140F8241D63
:102B4000203810BD202080F31188FEE710B5164C08
:102B5000E020A07400F093FB144900200860A06FEF
:102B600040F47000A0671248016841F040410160E4
:102B7000206840F01000206000F03AFC202080F334
:102B80001188FEE7202080F3118808480168491C5D
:102B90000160704705480168491E016004BF0020BC
:102BA00080F311887047000010ED00E0E8BE0020BF
:102BB00034EF00E0000000011CB500F088F9DFF8F8
:102BC00078038168002461B10C3001900023022059
:102BD000009064220FF268310FF2C100FFF72CFB66
:102BE0000446204616BD2DE9FC4104460D46164616
:102BF00098462820FFF724FF07000BD0002087F815
:102C00002400019743460898009032462946204602
:102C100000F003F83846BDE8F6812DE9F041079F42
:102C200004460D46164698468FB100F050F93C60B8
:102C3000BD61C7F81C8006983862381DFFF735FF64
:102C40002EB197F8240040F0040087F82400BDE876
:102C5000F0817FB5DFF8E06204461D46B0680023CE
:102C6000C0B106290091019202940EDAFFF7D5FD5A
:102C7000022803D1089AB068002302E0B06800235C
:102C80000022694600F067FC03E02A46694600F02E
:102C9000D6FC0346184604B070BD000080B506E0BF
:102CA000C0680068002100F00AF800F0ADF8A24802
:102CB000006801680029F3D101210020F3E7F0B595
:102CC00083B004460E46FFF7BBFB01A800F047F8AF
:102CD0000546019800283FD1974F36BBA54229D31E
:102CE000FFF7CCFB3868C068C668301DFFF705FFEA
:102CF00006F11807387B410710D5386801192346BB
:102D00002A46304600F066F858B1002000900023B3
:102D1000224600213046FFF79CFF02E000F0FE0053
:102D200038733046B9688847F7BD78680068461E32
:102D3000B641F60FB8683246611B00F07BFEFFF724
:102D40009DFB58B97D494FF08050086040BFBFF3EC
:102D50004F8FBFF36F8FF7BDFFF790FBF7BD2DE9E6
:102D6000F8430446FFF7D7FB734E80463069804531
:102D70000CD300202060C6F810804046BDE8F283E6
:102D80003860FD6039463068FFF79EFE30680168A4
:102D9000D9B1C068C568D0F800902F1D3846FFF73C
:102DA000ACFEF9692846884795F824004007EDD520
:102DB000786948448145E3D30020009000234A46C7
:102DC00000212846FFF745FFE0E771687060316039
:102DD0000120CFE738B500248A4241600061564D9A
:102DE00006D3D11A8269914206D2011D686807E0B4
:102DF0009A4203D2994201D3012403E0011D2868BD
:102E0000FFF762FE204632BD30B587B00AE0287C6D
:102E100040F001002874134602986860811820462B
:102E2000FFF7D8FF44488068002201A900F05FFC4A
:102E300000284AD00198002803D504990398029AE3
:102E4000904701980028EDD4039C04F114052868EC
:102E500010B1201DFFF751FE05A8FFF780FF0246C5
:102E600001980928DED8DFE800F00707072B0624C1
:102E700007072B06D6E7CAE7287C40F00100287434
:102E8000029B6868C1182046FFF7A4FF0028C9D03C
:102E9000E96820468847287C4007C3D50020009079
:102EA0000023029869680A1800212046FFF7D1FE26
:102EB000B8E7287C800703D42046FFF7E5FDB1E79B
:102EC000287C00F0FE002874ACE707B030BD10B5D8
:102ED000FFF758FE184CA068C0B904F11400FFF7C2
:102EE000D7FD04F12800FFF7D3FD04F114002060A2
:102EF000002204F1280060601021202000F009FB6E
:102F0000A06018B10FF2400100F07FFDBDE8104055
:102F1000FFF740BE10B50446FFF734FE94F82400D6
:102F200000F0010404E010B50446FFF72BFEE4694D
:102F3000FFF730FE204610BDBCBC002004ED00E0D1
:102F4000546D722053766300546D7251000000007E
:102F50000178091F0A2900D9704700B581B0DFE860
:102F600001F0061022262026221722261C000FF22E
:102F70008821096800916946408800F09CFF01B0F3
:102F800000BDFEF7E1FE0E2818BF08280FD00BE0A9
:102F9000002001F04BF801B000BD00F08EFF01B041
:102FA00000BD006900E0806808B101F04FF801B091
:102FB00000BD704710B582B001F06FF801F007F95D
:102FC00001F040F901F0E2F901F0A6F900F026FF66
:102FD00008B101F03BF805216846FFF7D7F831202A
:102FE0008DF8000007208DF8010010208DF80200F8
:102FF0009DF8030040F003008DF803009DF80400E5
:1030000040F003008DF80400684600F04BFF08B163
:1030100001F01CF8664800F033FF08B101F016F823
:103020006448FEF799FD08B101F010F800F08CFF3C
:10303000E0B200F0FBFF604C20684FF0FF3100F081
:10304000C6FB0028F8D001F03EFBF5E710B584B0D0
:103050005A4C20684FF48062694600F048FB00211A
:10306000684601F0B4F9012101A801F0B0F902218C
:1030700002A801F0ACF9009880B201F051FC01986F
:1030800080B201F054FCE4E710B584B0684600213A
:10309000002200230EC0494C012001F09CFC01F0ED
:1030A0001CFC01F034FC009001F034FC019001F0B4
:1030B00034FC0290012320680022694600F04BFA9C
:1030C0004FF40070FFF77BF9E6E7704710B582B068
:1030D00001F0CDFC08B100F0B9FF01F091FC01F066
:1030E00083FD08B100F0B2FF01F0C0FB0322002114
:1030F000012000F00EFA3049086010B9042000F0F9
:10310000A5FF002001F018FE08B100F09FFF2B4C36
:1031100004F1080001900023032000904FF4007296
:1031200021A12748FFF788F8606001281CBF042010
:1031300000F08CFF04F10C000190002301200090AE
:1031400080221AA11F48FFF777F8606001281CBF92
:10315000042000F07BFF04F1100001900023022006
:103160000090C0220FF288011748FFF765F86060F1
:1031700001281CBF042000F069FF00220C2105205B
:1031800000F0C7F9206010B9042000F05FFF0F487D
:10319000016841F004010160FFF72BF90F2000F0F6
:1031A00055FFFBE700000000424C4500414443004E
:1031B000512F0200B32F0200DCBE00202CBE0020E5
:1031C000B52F0200893002004D30020010ED00E002
:1031D00000B581B0002001F0E7FB012001F0E4FB25
:1031E000022001F0E1FB032001F0D9FBF2E700002F
:1031F00044495350000000000000000081B000224C
:10320000425040580090009801B070472DE9F041BD
:10321000664E4FF4A0713046FFF7F0FF0024EFF345
:103220001188202080F311886148624D07684FF4AF
:1032300080713046FFF7E2FF5F48006838B14FF415
:1032400082713046FFF7DAFF2868401C2860286842
:1032500007EB0066FFF75FF9361A02E0FFF767F940
:1032600004433046461E0028F8D124B153494FF09C
:103270008050086040BF88F31188BDE8F08180B5B8
:10328000002001F01CFC4E491F20086001214D4820
:103290000160012245498A600A6002210164E02040
:1032A000494908704FF400304849086001BD2DE9D4
:1032B000F84304464648844228BF464CEFF310804A
:1032C00072B6454DA96861B90121444AA9601368E5
:1032D00043490B402B601160516869604FF0FF312A
:1032E000516000B962B6324ED6F80080FFF768FA36
:1032F00000284BD0334F012078604FF4A07104EBCD
:10330000080020F07F40F0634FF48039DFF89C80A4
:1033100000F06CF8C7F80090BFF34F8F6CB101F06C
:1033200009FA20B13EDF40B100F090FE05E020BF79
:103330002C48016840680843F9D0C7F804904FF45E
:10334000A07100F053F84FF4807100F04FF80120A5
:103350003860184F1848006830B14FF4827100F09F
:1033600045F83868401C38603868316801EB006601
:10337000FFF7D1F8301A1C4A4FF400318442116033
:1033800088BF044614B12046FFF7CBF8A86858B1AF
:10339000EFF3108072B60D492A680A606A684A60C5
:1033A0000021A96000B962B6BDE8F18300100140B8
:1033B00004150140ECBE00200411014004ED00E0C2
:1033C000081501400413014011E400E000E100E0B1
:1033D000FEFFFF00FDFFFF0098BE002080E100E03F
:1033E000FC06FFBD00E200E080E200E0404605E7A9
:1033F0000748006880F3088862B661B6BFF34F8F54
:10340000BFF36F8F4FF4F07080F3118800DF00BFBF
:1034100000F0010070470000064B19680868B0E82A
:10342000F04F80F30988BFF36F8F4FF0000080F3F7
:10343000118870478CB8002070470000EFF30980B6
:10344000BFF36F8F134B1A681EF0100F08BF20EDEB
:10345000108A20E9F04F106008B44FF0200080F38C
:103460001188BFF34F8FBFF36F8FFFF7B3F84FF0A3
:10347000000080F3118808BC19680868B0E8F04FB4
:103480001EF0100F08BFB0EC108A80F30988BFF35C
:103490006F8F70478CB800207047FEE7EFF3118004
:1034A000202181F31188704738B504460D46FFF797
:1034B00069FB206CE16B226800FB01F3491E134499
:1034C0004843A36010440023A363E060626004F1FA
:1034D00044004FF0FF310170417075B92069A0B10F
:1034E00004F11000FFF7CEF878B1DFF840154FF087
:1034F0008050086000F0FBF907E004F11000FFF7CE
:10350000C7FA04F12400FFF7C3FAFFF743FB0120D9
:1035100032BDF8B504460D0016460EBF482005FB27
:1035200004F04830FFF78CFA070007D000973346C5
:1035300007F148022946204600F002F83846F2BD5D
:1035400082B0029B01B91A461A60D8631964184602
:10355000012102B0A8E72DE9F64F804683B09B46D3
:10356000002608F1240708F14404DFF8C0944FF066
:10357000805A03E000F0B7F9FEF780FFFFF702FB87
:103580007869B969884202D3BBF1020F12D103995D
:103590005A46404600F0B1F9396821B13846FFF784
:1035A00071F808B902E008B100F09FF9FFF7F2FAEC
:1035B000012041E0049810B9FFF7ECFA3BE016B99E
:1035C00000F08EF90126FFF7E5FAFEF739FFFFF765
:1035D000D9FA94F9000010F1010F04BF0020207007
:1035E00094F9010010F1010F04BF00206070FFF793
:1035F000D1FA04A900F0E8F8C8B9FFF7C3FA78696E
:10360000B96988420CBF01250025FFF7C3FA002DD8
:10361000B0D0049908F11000FFF715F800F063F935
:10362000FEF72CFF0028A9D100F05FF9A6E700F013
:103630005AF9FEF723FF002005B0BDE8F08F2DE911
:10364000F04781468A4616461F46FFF727FF09F1D5
:10365000240480466069A169884201D3022F1AD1EF
:1036600099F945503A465146484600F046F915F159
:10367000010F0BD1206860B12046FFF703F8002846
:1036800018BF002E05D00120306002E0681C89F8C8
:103690004500012000E0002088F31188BDE8F08794
:1036A00070B506460C46FFF7F9FE054606F1240004
:1036B00041698269914216D296F94520491C12F15E
:1036C000010F41610AD1016859B1FEF7DBFF002803
:1036D00018BF002C05D00120206002E0501C86F8A5
:1036E0004500012000E0002085F3118870BD2DE920
:1036F000F74F8346884600250BF144060BF1100472
:10370000DFF828934FF0805A04E0584600F03CF967
:10371000FEF7B4FEFFF736FAA76A8FB14146584666
:1037200000F01FF9781EA062206828B12046FEF73D
:10373000A9FF08B100F0D9F8FFF72CFA012040E00A
:10374000029810B9FFF726FA3AE015B900F0C8F868
:103750000125FFF71FFAFEF773FEFFF713FA96F93C
:10376000000010F1010F04BF0020307096F9010035
:1037700010F1010F04BF00207070FFF70BFA00F08A
:1037800022F80028584612D100F035F90028BCD0A4
:1037900002990BF12400FEF756FF584600F0F4F8AA
:1037A000FEF76CFE0028B5D100F09FF8B2E700F0FC
:1037B000EBF8FEF763FE584600F01DF90028A9D08B
:1037C0000020BDE8FE8F02A96846FEF794BF2DE9F0
:1037D000F243044682B00026002704F14405DFF8D6
:1037E0004C824FF0805904E0204600F0CDF8FEF7FF
:1037F00045FEFFF7C7F9A06BA8B1401EA063206883
:1038000010B9FFF7C7F8A060206940B104F11000BB
:10381000FEF738FF18B1C8F8009000F068F8FFF71D
:10382000B9F901205AE00298002854D016B900F0E6
:1038300057F80126FFF7AEF9FEF702FEFFF7A2F9EF
:1038400095F9000010F1010F04BF0020287095F9D0
:10385000010010F1010F04BF00206870FFF79AF912
:10386000FFF7B1FF002820461ED100F0C4F8002861
:10387000BAD0206838B9FFF785F9A068FEF7DAFFFB
:103880000746FFF787F9029904F12400FEF7DBFEF3
:10389000204600F079F8FEF7F1FD0028A9D1C8F81C
:1038A000009000F024F8A4E700F06EF8FEF7E6FDC3
:1038B000204600F0A0F800289BD077B1FFF762F90E
:1038C000606A00281DBF206B0068C0F10401002160
:1038D000A068FFF721F8FFF75DF90020BDE8FE833F
:1038E0006846FEF701BF40464EE0C9F800A040BF61
:1038F000BFF34F8FBFF36F8F7047F8B5044617467D
:10390000A56B226C002642B9206830BBA068FEF788
:10391000C9FF06460020A0601FE067B96068FCF799
:1039200011FE6068216C0844A1686060884214D36D
:103930002068606011E0E068FCF704FE206CE1683C
:1039400040420144E1602268914202D2A1680844E9
:10395000E060022F01D105B16D1E681CA0633046E6
:10396000F2BD10B5026C0B466AB1C168846811449F
:10397000C160A14224BF0168C160C168BDE81040B8
:103980001846FCF7DFBD10BDF8B500F031F804F1C2
:10399000440504F1100795F9016007E004F12400E3
:1039A000FEF770FE08B1FEF7CAFE761E76B2012E53
:1039B00002DB78690028F1D14FF0FF346C70FFF71B
:1039C000E9F8FFF7DFF895F9006006E03846FEF702
:1039D00059FE08B1FEF7B3FE761E76B2012E02DB69
:1039E00038680028F2D12C70BDE8F140FFF7D2B85A
:1039F0000446FFF7C7B810B5FFF7FAFFA06B441EE7
:103A0000A441FFF7C7F8E00F10BD10B5084B1C68C4
:103A100000222CB943F8321003EBC201486010BDFC
:103A20009C680122002CF5D010BD000004ED00E0E0
:103A30007CBE0020F8B504460D461646FFF7A2F8F6
:103A400004F1380797F90C0010F1010F04BF0020B2
:103A5000387397F90D0010F1010F04BF002078733F
:103A6000FFF798F8386828B93246294604F124004F
:103A7000FEF7F7FD2046BDE8F24085E738B504467D
:103A8000002505E001EB85012046096988476D1C8A
:103A9000DFF8A414C8788542F4DB31BD70B58AB074
:103AA000054600F04CFA6888DFF88C64ADF8040035
:103AB0004FF6FF7401F02AFCADF802002978B078C7
:103AC00009296DD8DFE801F0051223343A40546C1F
:103AD000656707208DF8000028798DF80800002020
:103AE0008DF80900039000F064F857E0072000F01B
:103AF00070F800F05EF8B06800284FD0A9688842DE
:103B00004CD10020B060BDF80400F08013E0082024
:103B100000F05FF8E8680490B06800283ED0A9681B
:103B200088423BD10020B060F068401EF06002E0A7
:103B3000072000F045F8002003902FE0082000F057
:103B40003FF8A868049029E009218DF8001028B3F7
:103B5000204601F0CDFEA04220D1204601F0CAFE51
:103B6000A0421BD100F040F80B2000F01BF80CE045
:103B70000A218DF80010A968029178B100F034F89C
:103B80000C2000F00FF8A868079005A8FFF776FF53
:103B900004E0052000E006208DF8000000F02AF97E
:103BA0000AB070BD8DF81400ADF81840ADF816409D
:103BB00070479DF80A0040F001008DF80A00704738
:103BC0008DF8000028798DF8080001208DF8090093
:103BD00070478DF8000028798DF8080000208DF8D6
:103BE0000900A868039070470020B070142105A850
:103BF000FEF7CCBAF0B585B000F0A0F96088DFF828
:103C000038633179ADF80200012522787079521EAF
:103C10000B2A6ED8DFE802F076061529303C474BB8
:103C2000515759698DF800502079020018BF0122C0
:103C3000012860880CBF0127002701F031FF3A46B8
:103C40000EE002208DF800002079002814BF01202A
:103C500002208DF808000122608801F021FF2279FE
:103C60007179608801F01CFF44E000F04DF80028F5
:103C700014BF012002200FE0608801F005FF00283A
:103C800040D102208DF8000000208DF8080031E0BE
:103C900003208DF8000000208DF80800A0798DF831
:103CA0000C00A0881EE0072000F035F828E008206E
:103CB00000F031F8A068049022E006208DF80000A2
:103CC0006068029016E0052010E000F01DF8002862
:103CD00014BF012002208DF8080000208DF80C0090
:103CE00041F20110ADF80A0004E004208DF8000054
:103CF00000E00025608801F0B2FAADF804000DB1D3
:103D000000F078F805B0F0BD03218DF800100146F1
:103D1000608801F0B9BE8DF80000A088ADF80400FD
:103D200007208DF8080000208DF80900704700007A
:103D300010B586B000F002F96088ADF8040001F01B
:103D4000E5FAADF802002078092824D8DFE800F071
:103D50000505090B0D131525171B00F020F8082089
:103D600006E00D200CE00E200AE000F018F8052017
:103D70008DF808000FE00F2002E0102000E0052081
:103D80008DF8000007E006208DF80000A068029082
:103D9000A088ADF8020000F02DF806B010BD072095
:103DA0008DF8000000208DF80900704710B504461A
:103DB00086B0207810B1012804D019E0E08800F026
:103DC00084F815E0DFF8700141796088012201F084
:103DD00067FE00F0B4F86088ADF80200608801F07A
:103DE0003EFAADF8040000208DF8000000F002F863
:103DF00006B010BD684641E610B50446DFF838014C
:103E0000007850B1204601F073F9204601F0EDFF33
:103E10002046BDE8104002F088B910BD10B502F090
:103E200010FB28BB01F0DBFB10BB01F0B9FFF8B9B8
:103E300002F08DFDE0B902F0F6F8C8B902F0CDFF4E
:103E4000B0B901F0F4F998B9DFF8EC404FF6FF7023
:103E5000E0800020A06018202071607101F002FE57
:103E60001828207104D001F0FDFD1828607101D1DF
:103E7000032010BD0020607001202070002010BDC4
:103E8000DFF8B4100A780AB908207047CA78032A04
:103E900001DB0420704701EB82031861501CC870DD
:103EA00000207047DFF890100978002918BF01F052
:103EB000DEBF0820704701F0EFBFDFF87C0000781C
:103EC000002818BF02F09EB970471B4909780029E5
:103ED00018BF01F044BA0820704770B5164E30780C
:103EE00086B008B9082025E00120B0704FF6FF74B5
:103EF000204601F0FDFC0546A54211D10020B0701E
:103F000000F01DF80B208DF80000ADF80440ADF86E
:103F10000240FFF76FFF03E0284601F0E9FC054689
:103F2000A54206D02846FFF7D0FF0028F4D0032092
:103F300000E0002006B070BDF4BD0020044614214E
:103F40006846FEF723B9000010B5ACB03C211CA8B0
:103F5000FEF71CF902208DF870003C2100208DF83E
:103F6000720005208DF873000DA8FEF70FF90120EF
:103F7000ADF844000721254C04F1180012900A20E6
:103F8000ADF80C004BF6BE60ADF80800AA2020701A
:103F90006846FEF7FBF89DF8000000F001008DF880
:103FA0000000062268466DDF68466DDF0DF10101F5
:103FB000601CFCF7C7FA0120E071049440202072D5
:103FC000646102A82590202105A8FEF7DFF80120F2
:103FD0008DF817004FF496700990B4200A900020D5
:103FE000009005AA0FF229030DA91CA802F0B6FF44
:103FF000E06003F04FF92061E06808B100F026F8B6
:10400000012002F0A7FF2CB010BD0000C03F00202F
:1040100080B530B1032808D1022003F0BEFA20B1E8
:104020000FE0BDE8014003F0EBBA01BD80B510B16F
:10403000FFF753FF02E0032003F00EF800B100E0A9
:1040400001BDBDE8024000F001B8FEE710B584B044
:1040500069460022002300241CC100F001F81FBDA6
:1040600002906A46002144F2010003F0DDBAFEE747
:1040700080B5002000906946A1480068FFF710FB5A
:10408000009840B19F494FF08050086040BFBFF397
:104090004F8FBFF36F8F002002BD10B50FF2E820E5
:1040A000994C0068994B86B0D822049004F10C0119
:1040B00004A800F042FB08B1FFF7C8FF0020009001
:1040C000684600F081FB00992060616008B1FFF74D
:1040D000BDFF00F050F801A9009A69DF206008B127
:1040E000FFF7B4FF00F047F88DF805108DF80610C3
:1040F00001A9009A402069DF206008B1FFF7A6FF00
:1041000000F039F89E20ADF8060001A9009A23209E
:1041100069DF206008B1FFF799FF00F02CF84FF439
:10412000A070ADF8080001208DF8060001A9009AE2
:10413000202069DF206008B1FFF788FF684600F0A3
:104140005FFB206003F0A6F8A060206808B1FFF7CD
:104150007DFF0FF2350000F017FB206008B1FFF77C
:1041600075FF0FF2590000F017FB206008B1FFF750
:104170006DFF06B010BD01A80021002200230EC073
:1041800001208DF80400704710B5044601F0D2FB01
:104190002046FFF731FE204603F0F2FA21465C4844
:1041A00003F0A4FB204600F062F8204603F029F853
:1041B0002046BDE8104003F048BD000010B504469D
:1041C000FDF786FF2046BDE8104003F045B800B576
:1041D00085B011208DF810000A220FF2A01104A85A
:1041E0007CDF08B1FFF732FF002078DF08B1FFF76E
:1041F0002DFF0021CDE900114FF4A070ADF80000B3
:10420000ADF804104FF40270ADF802004FF4C8701E
:10421000ADF8060068467ADF08B1FFF717FF02A87D
:104220000021C0E9001101208DF80800ADF80A1046
:1042300002208DF8090002A870DF08B1FFF706FF21
:1042400005B000BD10B5324C0FF22101204603F03D
:1042500032FB08B1FFF7FAFE4021204603F03AFB9B
:1042600018B1BDE81040FFF7F1BE10BD704730B582
:10427000044689B02088274D01281AD0102808D07C
:1042800011280ED03B2810D0512816D056280CD01B
:1042900033E0072003F081F908B1FFF7D7FEA088CB
:1042A00001E04FF6FF70688327E0A088132176DFD6
:1042B00020E0A088002166DF1CE06846A11D1022D6
:1042C000FCF740F99DF80000B8B19DF808000428FB
:1042D0001CBF0628052810D19DF80000022818BF31
:1042E00001208DF8100004A94FF4C170ADF814003E
:1042F000A088A8DF08B1FFF7A9FE09B030BD000013
:10430000DCBE002004ED00E0DCB6002071400200BD
:1043100040BE0020BCBD002000B587B01C2168460F
:10432000FDF734FF002000904FF4A05001904FF4AF
:10433000F040029003208DF80C000020ADF80E0034
:104340008DF810000FF2190005900FF22D00069065
:10435000684603F0C4F908B1FFF778FE07B000BD66
:10436000007838B93B214FF6FF7076DF002818BF80
:10437000FFF76CBE70470000FFF768BE534D415217
:104380005420484F4D4500000100000710B50FF2C2
:104390003C200FC886B001AC84E80F004AF6CD304F
:1043A000ADF800000DF1020101A862DF68B90F4C01
:1043B000224669460120A0DF204600F019F8204679
:1043C00000F034F8204600F0A5F806B010BD074A0A
:1043D00019B1022907D003D3704701461046B8E04F
:1043E00001461046C0E001461046E3E0BCBD002097
:1043F00030B504460FF2E4100FC895B010AD85E853
:104400000F004CF6FE2000F05BF862DF00F054F87D
:1044100000F06FF800F062F80FF2D01100F03BF8F6
:1044200000F040F800F052F8A31C1DE030B504463F
:104430000FF2BC100FC895B010AD85E80F004BF619
:10444000BE2000F03DF862DF00F036F800F051F8D1
:1044500000F044F80FF2A81100F01DF800F022F867
:1044600000F034F804F10A039DF8020000F0F900AE
:1044700040F002008DF8020004AA9DF8240040F0EC
:1044800010008DF8240009A94FF6FF706083208882
:10449000A2DF15B030BD0A68089002601C2109A88F
:1044A000FDF774BE9DF8240040F00A008DF824004A
:1044B00003216846FDF76ABE032101A8FDF766BE29
:1044C000ADF808000DF10A0110A8704711208DF811
:1044D00000008DF80100CDF838D0704702A8049094
:1044E00001A805900420ADF81C00ADF8180003A841
:1044F00070479DF8060000F0F90040F002008DF8CA
:104500000600142111208DF804008DF8050004A880
:10451000FDF73CBE30B504460FF2E8000FC895B079
:1045200010AD85E80F004DF20D00FFF7C9FF62DF07
:10453000FFF7C2FFFFF7DDFFFFF7D0FF0FF2D40157
:10454000FFF7A9FFFFF7AEFFFFF7C0FF04F112036B
:104550008AE770B586B000F01FF803D0428800F0FB
:104560000EF8A6DF06B070BD70B586B000F014F886
:1045700003D0428900F003F8A6DF06B070BDADF8A5
:104580000020ADF8044001228DF80220039104AA16
:1045900002926946408B70470422ADF81020002338
:1045A0006A4600240025002678C2428B4FF6FF732E
:1045B0009A42704770B586B0FFF7EEFF03D0428A8B
:1045C000FFF7DDFFA6DF06B070BD0000EE08702427
:1045D000C0E948CE8FCD0443E79B24A1EE087024A8
:1045E000C0E948CE8FCD0443E79B24A1123456780E
:1045F000EE087024C0E948CE8FCD0443E79B24A188
:1046000012345678EE087024C0E948CE8FCD0443AA
:10461000E79B24A112345678012100F01F0291403B
:104620006E4A04E0012100F01F0291406C4A4009EB
:1046300042F820107047202804DA6A49C14001F08E
:1046400001007047402807DA0121203811FA00F0F4
:1046500018BF0120C0B270470120704710B5044652
:10466000FFF7E9FF10B942F2010010BD200006D5A6
:104670005D4904F00F02114411F8041C01E05B498C
:10468000095C490908290ED2002918BF01290AD05E
:10469000042918BF052906D055498A6832B9FFF7A1
:1046A000BBFF002010BD42F2020010BD400951F8CE
:1046B0002020012304F01F04A3401A4341F82020C6
:1046C000EFE702F0B1BF7CB54A4C207888B320698F
:1046D000002500280CBF0126002600E09DB9607867
:1046E00038BB684648DF052808BF01250BD010B14C
:1046F000FFF7ACFC07E0009800F047FAA16808005B
:104700001CBF0098884796B9607890B96088ADF86A
:10471000040001A9E06861DF052808BF012606D072
:1047200010B1FFF793FC02E0E06821698847354249
:10473000D4D073BD2F480078704770B50446C9B116
:1047400011F0030016D12B4D2448E9606A806B609C
:10475000006810F001061CBF0020FFF763FF264928
:10476000204610DF040007D016B10020FFF754FFE9
:10477000204670BD072070BD0120287000F00AFAA5
:10478000BDE87040162069E7010001D10E20704796
:104790001849086100207047010001D10E207047C0
:1047A000144988600020704780B5124840680100B5
:1047B00002D0804718B103E0BDE8014083E701BDA6
:1047C000BDE80240FFF742BC81B00C49009100995E
:1047D0000160002001B070470000000000E100E02F
:1047E00080E100E0FC06FFBD18ED00E000E400E021
:1047F00098BE002068BE0020C3460200C03F0020D3
:1048000010B5014682B008680090684660DF044633
:1048100000980968884206D12CB122460FF20C019B
:10482000012000F0EFFA204616BD00005344483A3C
:104830004552524F523A73645F626C655F656E61B8
:10484000626C6528292072657475726E65642075C6
:104850006E65787065637465642076616C75653A21
:1048600020307825782E0D0A0000000010B50FF2D8
:10487000D4018AB01CC906A80FF2D4011CC01CC9FF
:1048800003A80FF2D8011CC01CC968460FF25101E1
:104890001CC0002003F0D5FA08B1FFF7D7FB06A92A
:1048A000002003F016FB08B1FFF7D0FB03A901209D
:1048B00003F00FFB08B1FFF7C9FB6946022003F0C4
:1048C00008FB08B1FFF7C2FB03211C4803F03AFBC9
:1048D00008B1FFF7BBFB0AB010BD03F093BB0000AB
:1048E00010B50446207888B96068032103F02AFBDC
:1048F00008B1FFF7ABFB12498A686068521C8A60F6
:1049000002880A8042884A808088888010BD0C48CE
:10491000008870470A484088704709488088704777
:1049200000B581B003F08CFB80B201B000BD00B5D2
:1049300081B003F08FFB80B201B000BDA4BE0020A7
:104940008CBE0020000004000200000100000000F6
:10495000000004000200000200000000000005004A
:10496000020000030000000041EA420141EA830224
:10497000009942EA0122019942EA01411D4A42F8A6
:1049800020107047012202FA00F01B4A09B950605A
:1049900070471060704719490FF2A80244E00FF207
:1049A000A402105C0021EDE70FF29802105C0121D7
:1049B000E8E710B500242046FFF7F6FF641C042C3E
:1049C000F9D310BD10B500242046FFF7E8FF641CA2
:1049D000042CF9D310BD0FF26C01085C07490A687A
:1049E000012303FA00F020EA02034B6010408860C4
:1049F00070470000000700500805005004050050F3
:104A000030B583B000240FF23C05002001900090E7
:104A10000023285D01220121FFF7A6FF641C042C5E
:104A2000F3D3BDE83740C4E70968105CC14001F02A
:104A30000100401E8041C00F70470FF20C01085C5E
:104A400070470000111213140D0E0F104FF080412B
:104A500081B000220A5008580090009801B07047B9
:104A60004FF08041085800B10120C0B2704738B5FE
:104A7000514D2878002408B1852413E0A8606860AF
:104A80002861E8604D480068C00703D40721002072
:104A900003F0EEFAFFF74EFE10B949490120086015
:104AA00001202870204632BD0268134600E01B68D2
:104AB00013B18B42FBD170470A600160704738B573
:104AC0003D4C0546A07830B115B169680120884792
