:020000040001F9
:10F00000B04C002051C70200930C02003F1E0200CA
:10F01000571E02008F1E0200F31E020000000000B7
:10F02000000000000000000000000000198A02003B
:10F03000BF1F0200000000003D8A020037200200CE
:10F04000CB9F0200EB2102001F7302001B22020073
:10F050004B2202000B27020061C402008DB50200A2
:10F0600063290200DF290200932A02006B2B0200B1
:10F07000036002000B600200DF6302003B740200C9
:10F08000338002001D8802009B8A0200EFAE02005E
:10F0900001C7020027C70200699C020033C70200B3
:10F0A00075C7020077C7020079C702007BC702005C
:10F0B0007DC702007FC702000000000000000000C2
:10F0C00081C7020083C7020085C7020087C702000C
:10F0D00089C702008BC702008DC702000000000034
:10F0E0000000000000000000000000000000000020
:10F0F0000000000000000000000000000000000010
:10F1000000000000000000000000000000000000FF
:10F1100000000000000000000000000000000000EF
:10F1200000000000000000000000000000000000DF
:10F1300000000000000000000000000000000000CF
:10F1400000000000000000000000000000000000BF
:10F1500000000000000000000000000000000000AF
:10F16000000000000000000000000000000000009F
:10F17000000000000000000000000000000000008F
:10F18000000000000000000000000000000000007F
:10F19000000000000000000000000000000000006F
:10F1A000000000000000000000000000000000005F
:10F1B000000000000000000000000000000000004F
:10F1C000000000000000000000000000000000003F
:10F1D000000000000000000000000000000000002F
:10F1E000000000000000000000000000000000001F
:10F1F000000000000000000000000000000000000F
:10F20000C01C30B480B240F2FE329042A8BF092048
:10F2100029DADFF8882C92F8C0400023A4B9B2F8AC
:10F22000C840B2F8CA5024182C19A4B2B4F5806FA3
:10F230000ADA0B8002EB0311B1F8CA208018A1F89A
:10F24000CA00002030BC704792F8D04001234CB96E
:10F25000B2F8D840B2F8DA5024182C19A4B2B4F598
:10F26000806FE6DB072030BC7047DFF8303C0A686F
:10F2700003EB0010D0F8C40012B900F1080203E05B
:10F28000538802EB83020C324FF4805303449A42BA
:10F290000ED2136813F1010F0AD093884FF6FF7C4A
:10F2A00063451CBF1388002BEAD00A600120704719
:10F2B00000207047F0B4446823002ED0DFF8E05BF4
:10F2C0002E682246B24224BF6D68954225D314F0C1
:10F2D000030301BFDFF8C43B0589B3F80861B542F9
:10F2E0001BD10568A668B54217D1D3F8C4400020E9
:10F2F00094423EBF4FF480556419A24209D3D3F81B
:10F30000D430012093423EBF4FF480541B199A42DF
:10F310003CD208800120F0BC704700220A804FF6E2
:10F32000FF74DFF8783BD0F800C003F1C402156821
:10F3300005F108060AE02EB91568D0F800C005F1FD
:10F34000080603E0778806EB87060C364FF48057F3
:10F350002F44BE4213D2376817F1010F0FD0B78880
:10F36000A7421CBF3788002FECD0B7686745E2D1B1
:10F370004660B3F8081101810120F0BC70470D8888
:10F380006D1C0D801032ADB2022DD5DBF0BC00201B
:10F3900070472DE9F043DFF8049B99F82C51AD0735
:10F3A00058BF022059D5002A18BF002B14D09D88C1
:10F3B000022D51DA4FF6FF759E8809EB061797F874
:10F3C000C040002C43D11C68D7F8C4C03CB1B4F88D
:10F3D000028004EB880409E00520BDE8F0830CF10D
:10F3E000080E05E0BEF802400EEB840404F10C0E9A
:10F3F0004FF48058E044C64527D2DEF8004014F1AF
:10F40000010F22D0BEF80440AC421CBFBEF8004041
:10F41000002CE7D0C3F800E000281EBFBEF804802F
:10F420000488A045CFD100291EBFBEF800800C88FB
:10F43000A045C8D1DEF808001060C2F804E0B9F8B1
:10F44000080110810020BDE8F08300271F60761CB2
:10F450009E80B6B2022EAFDB0A20BDE8F08300002A
:10F460002DE9F047DFF8344A666F0023042E65D299
:10F47000D4F8BC50C1F10807AF425FD3236F9B198A
:10F4800003F00303C3EBC30604EB8603B0E8C057E5
:10F49000A3E8C057606F401C002960674DD0D4F8C6
:10F4A000B800401900F0070004EBC00000F1780339
:10F4B00011F0030000F00F80D2E90067C3E9006794
:10F4C00004F1B005AB4214BF083304F17803401EC9
:10F4D00002F10802F0D1880800F02A80D2E9006722
:10F4E000C3E9006704F1B005AB42D2E9026714BF7B
:10F4F000083304F17803AB42C3E9006714BF083353
:10F5000004F17803D2E90467C3E90067AB42D2E9AA
:10F51000066714BF083304F17803AB42C3E9006700
:10F5200014BF083304F17803401E02F12002D5D144
:10F53000D4F8BC000818C4F8BC0001231846BDE884
:10F54000F08700002DE9F047DFF854090268002138
:10F5500081B00025894603234FF6FF781068DFF855
:10F56000247CB84226D15768DFF81C4C4FF48050F9
:10F570003F1B10445ED07F1E1CD1B9F1000FDFF895
:10F580001C790DD007EB0514022684F8C0606D1CB1
:10F59000D7F81061C4F8C460ADB20226A4F8C86000
:10F5A0000224D7F830E1C7F8102102F1080CA7F8BF
:10F5B000144196E0002017463C6814F1010F04BF87
:10F5C0007C6814F1010F21D1BC6814F1010F04BF54
:10F5D000FC6814F1010F19D1001D1037B0F5806FD0
:10F5E000EAD3DFF8B878D7F81001C8B107EB0514F3
:10F5F000022084F8C000C4F8C420A4F8C800A7F80A
:10F60000025141F001016D1CADB27AE0DFF88C7857
:10F6100007EB051703206D1C87F8C000ADB270E042
:10F620000220C7F81021A7F814014FF0010941F09A
:10F63000010166E0DFF8647807EB0516002486F820
:10F64000C040C6F8C42006F1CE04009406F1C80CF0
:10F650004FF0000E02F10804022609E04FF0010EFF
:10F660006688BCF800A004EB8604F61C0C345644F3
:10F670008442ACF8006012D2266816F1010F0ED059
:10F68000A68846451CBF2688002EE7D0D7F830A1B3
:10F69000A668B24538BFB246C7F830A1E0E7009887
:10F6A0006D1C80F800E041F00201ADB229E000BF1E
:10F6B000BCF8046046451CBFBCF80060002E04D0B6
:10F6C000DCF80860B64538BFB646BCF802400CEB23
:10F6D000840606F10C0CB7F81461E41CA419A7F811
:10F6E0001441844504D2DCF8004014F1010FDFD14D
:10F6F000B7F81401C7F830E102280CBF0420082035
:10F7000001434FF480505B1E02447FF427AFC8B220
:10F7100001B0BDE8F08710B5DFF88047B4F802010A
:10F7200004EB0011DFF87807B1F8CC204AB9D1F822
:10F73000C4100023012201F054F9042184F80011BF
:10F7400010BD052184F8001100230221A4F8141132
:10F750000122D4F81011BDE8104001F042B90000B8
:10F76000DFF8380790F80011072943D8DFE801F0E7
:10F770000442421D283D3D3FB0F8081190F8C020DA
:10F78000491CA0F808110021A0F8021180F80C1102
:10F79000511E8941C90F80F80A1190F8D020511EDE
:10F7A0008941C90F80F80B1121E0D0F8042152885B
:10F7B000B0F81411D21C5118A0F81411022117E04E
:10F7C000B0F80221D0F8101100EB0212D2F8C430C8
:10F7D000C0F81031C2F8C410B0F81411A2F8C81063
:10F7E0000221A0F81411062102E0072100E0012106
:10F7F00080F800117047000030B5024681B00C4619
:10F800000F2052B1DFF8945695F82C0100F0FE005D
:10F8100085F82C0101B0012030BD2179032970D871
:10F82000DFE801F002123B4B002000900223DFF8DA
:10F830006C060FF2D432D0F81011DFF8640601F034
:10F8400070F8012121715CE0DFF8505695F8C01086
:10F850000020022910D105EB0014002000900223A3
:10F86000D4F8C4100FF29832DFF8340601F059F8DA
:10F87000002184F8C01044E095F8D010012002293E
:10F88000E9D095F82C0100F0FE0040F0020085F868
:10F890002C0101B041F61D5030BDDFF80056DFF8F5
:10F8A0000006D5F810110023012201F09AF8022178
:10F8B000A5F814110021217123E0DFF8E0550FF2C3
:10F8C0004032D5F81011002000900223DFF8D00557
:10F8D00001F027F8B5F80211D5F8102105EB011158
:10F8E000D1F8C430C5F81031C1F8C420B5F81421DE
:10F8F000A1F8C8200222A5F81421002281F8C02016
:10F90000227140B1DFF8945595F82C0100F0FE000B
:10F9100085F82C010E2001B030BD00002DE9F0412A
:10F920000C4682B0618ADFF8746506EB011101F1C3
:10F93000C005298958B1E088C21C511829816989FC
:10F94000081AC01E688102B00120BDE8F081686815
:10F9500000EB8108207C062800F29E80DFE800F0A2
:10F9600017652637047C99000020C6F82401A06999
:10F97000C6F820014FF4977031184FF4907030445E
:10F98000FFF798FC18B90A2002B0BDE8F08100200A
:10F9900000900123221D4146DFF8040500F0C1FF5D
:10F9A0000221002821743CD00E2076E00020009037
:10F9B000012304F10C0208F10801DFF8E40400F06F
:10F9C000B0FFA17D00290CBF012103213DE0D6F845
:10F9D000BC00002768B1D6F8B81006EBC102491C7C
:10F9E00001F00701401E02F17807C6F8B810C6F80A
:10F9F000BC0000200090A08ABB883A6808EB800118
:10FA0000DFF89C0400F08DFFA18ABA885118A1820A
:10FA1000A17D491EA175C9B209B90121217400282F
:10FA2000C2D1002002B0BDE8F08100200090012387
:10FA300004F1080208F10401DFF8640400F071FF2A
:10FA4000217803290CBF0521062100282174ABD1A0
:10FA5000002002B0BDE8F08100200090B6F82E71C1
:10FA6000D6F824110FF20842DFF83404012300F025
:10FA700058FF18B106210E2021740EE006EB071185
:10FA8000012081F8CE0006212174002002B0BDE8DB
:10FA9000F08141F61D5000E00F20E1882A89CB1C3F
:10FAA0009A182A816A89511AC91E698102B0BDE873
:10FAB000F081000010B582B010B1012002B010BD7D
:10FAC000DFF8D84394F80C0100281ABF002084F80E
:10FAD0000C01FFF745FE94F80001401E062800F2D5
:10FAE0008B80DFE800F004445D6B896F7B0094F845
:10FAF0000A11002039B1B4F8CC1084F80A0111B908
:10FB000094F8CE1061B994F80B11012099B100213D
:10FB100084F80B11B4F8DC1069B994F8DE1051B117
:10FB2000A4F802014FF482702118B4F80201FFF723
:10FB30009CFB58B942E0002084F80001A4F80201BF
:10FB4000C4F8040102B041F61D5010BDD4F80421E0
:10FB50005088B4F81411C31C032084F800019BB230
:10FB600000200090D4F8100100EB81013FE04FF439
:10FB700082702118B4F80201FFF777FBF0B1D4F8D6
:10FB800004215088B4F81411C31C032084F8000128
:10FB90009BB200200090D4F8100100EB810126E018
:10FBA000D4F80421B4F81411002000905088C31C2C
:10FBB000D4F810019BB200EB810118E002B0BDE85F
:10FBC0001040A8E5002000900223B4F802010FF2D3
:10FBD000300204EB0010D0F8C41008E00020D4F884
:10FBE00010110FF22402C4F8040100900223AC4863
:10FBF00000F097FE02B010BD0F2002B010BD000053
:10FC0000DEC0ADDEFE011EF1DEC0ADDEFF011EF185
:10FC1000F0B5A24C216FC1EBC10204EB820585B0A7
:10FC20002978491E052900F27D80DFE801F00311E3
:10FC3000111515782946FFF7DFFD0646002E00F066
:10FC4000158141F61D5086426ED1002001907DE065
:10FC50002946FFF763FEF0E708B10126F1E72879AE
:10FC600080B3022802D004D30F26E7E741F61D56E1
:10FC7000E4E74FF48C70231801AA0021A81DFFF7B8
:10FC800088FB060013D100200090B4F81C71029983
:10FC90000FF2DC128248012300F043FE002803BF6C
:10FCA000012004EB071181F8CE000E2605E04FF489
:10FCB0008C7020440021C0E900110A2EBED141F60B
:10FCC0001D56BBE702A80021002200230EC0E868F1
:10FCD000029001A902A8FFF7EDFAE0B103990FF233
:10FCE00090128888E88001230888288100200090ED
:10FCF000BDF804606A4800F014FE18B102200E2618
:10FD000028719BE704EB0611012081F8CE00002644
:10FD10000220287192E702200A2628718EE7FFF759
:10FD2000C9FE8AE70F268CE701962878022818BFBB
:10FD300003280BD1D4F8B800A97D4018C4F8B80046
:10FD4000A97DD4F8BC00401AC4F8BC002878401E35
:10FD500005283ED8DFE800F03A2E1B0F05030520EA
:10FD600035E004208DF80000E888ADF80C00002094
:10FD7000ADF80E002DE003208DF80000E888ADF806
:10FD80000C002889ADF80E00E868029021E00220FE
:10FD90008DF800002889ADF80C00A888ADF80E0099
:10FDA000E8680290287C06280CBF012000208DF80E
:10FDB00010000EE001208DF800002889ADF80C003D
:10FDC000A888ADF80E00E868029002E000208DF8E7
:10FDD0000000D4F8E01008001CBF68468847D4F83B
:10FDE000E41008001CBF68468847D4F8E8100800F3
:10FDF0001CBF68468847D4F8EC1008001CBF684652
:10FE00008847D4F8F01008001CBF68468847D4F82B
:10FE1000F41008001CBF68468847D4F8F8100800A2
:10FE20001CBF68468847D4F8FC1008001CBF684611
:10FE30008847206FC0EBC0021C2104EB820000F059
:10FE4000E5FE606F60B1216F491C01F00301401EA7
:10FE50002167606704D00020FFF7DAFE05B0F0BD2F
:10FE600094F82C0100F0FB0084F82C0105B0F0BDE3
:10FE70000000FFFF0846CBE6DFF8101791F82D21B0
:10FE8000082A01D10C20704701EB8203C3F8E0007F
:10FE9000501C81F82D0100207047000008660020EA
:10FEA0009C440020F0B58DB068460021002200235C
:10FEB0000EC006C0DFF8D44694F82C0181071AD48E
:10FEC000C10749D440F0010084F82C0100F060FC27
:10FED00001208DF81400FFF735FB0B2800F281801C
:10FEE000DFE800F0067606767F7C3D7C7F787A78C6
:10FEF0000B200DB0F0BDD4F8E01008001CBF684620
:10FF00008847D4F8E41008001CBF68468847D4F836
:10FF1000E81008001CBF68468847D4F8EC100800B9
:10FF20001CBF68468847D4F8F01008001CBF68461C
:10FF30008847D4F8F41008001CBF68468847D4F8F6
:10FF4000F81008001CBF68468847D4F8FC10080069
:10FF500069D06846884766E000200DB0F0BD94F88F
:10FF60002C01D4F8E01000F0FE0040F0020084F80C
:10FF70002C0108001CBF68468847D4F8E41008002C
:10FF80001CBF68468847D4F8E81008001CBF6846C4
:10FF90008847D4F8EC1008001CBF68468847D4F89E
:10FFA000F01008001CBF68468847D4F8F410080019
:10FFB0001CBF68468847D4F8F81008001CBF684684
:10FFC0008847D4F8FC1008002DD0684688472AE0FE
:10FFD000002004E0032002E0022000E001208DF870
:10FFE0001800606F04283CBFD4F8BC1009290FD258
:10FFF000216F081800F00300C0EBC00104EB810082
:020000040002F8
:1000000005A9B1E8EC50A0E8EC50606F401C6067B7
:1000100094F82C01410706D440F0040084F82C0128
:100020000020FFF7F5FD00200DB0F0BD30B5040055
:100030000D4614BF002D052081B018D06946FFF78A
:1000400039F998B1BDF80020DFF84015606801EB80
:100050000211B1F8CC20521CA1F8CC2028600C3041
:1000600068600120A07201B0002030BD0A2001B0FC
:1000700030BD10B5040082B008BF05201BD0694612
:10008000FFF718F9B0B1BDF80010DFF8000500EB7C
:100090000110B0F8CC100A001CBFA27A002A06D0CA
:1000A000491EA0F8CC100020A07202B010BD06209E
:1000B00002B010BD0A2002B010BD70B4DFF8CC242D
:1000C00092F82C319B0758BF022034D510B970BC70
:1000D00005207047CB1C9BB240F2FE34A342A8BF60
:1000E000092227DA92F8C05000244DB9B2F8C8505E
:1000F000B2F8CA60ED187519ADB2B5F5806F0DDBB9
:1001000092F8D0500124A5B9B2F8D850B2F8DA600C
:10011000ED187519ADB2B5F5806F0ADA02EB04126D
:10012000B2F8CA505B19A2F8CA300480002241809C
:1001300000E00722104670BC704730B4DFF84C1462
:1001400091F82C21920758BF022019D510B930BC64
:10015000052070470288032A11DA01EB0211448856
:10016000B1F8CA301D1BED1E09D41A1BD21EA1F80E
:10017000CA20002101804180002030BC704704204B
:1001800030BC7047DEC0ADDEFE011EF1F0B5DFF819
:10019000FC73044697F82C010026800789B00D46B1
:1001A00058BF022040F1A88015B9052009B0F0BD64
:1001B00028884FF6FF7188421CBF6888002800F02D
:1001C0009A802989080025D06A6810F0030C07D0AE
:1001D00012F8083B13F003033ED1BCF1010CF7D138
:1001E000830817D092F800C01CF0030C04BF92F8EB
:1001F00008C01CF0030C2FD192F810C01CF0030CA7
:1002000004BF92F818C01CF0030C25D15B1E02F14C
:100210002002E7D1C9B16968091D10F0030205D0B9
:1002200031F8083B9E19521EB6B2F9D180080CD0A5
:100230000A880B8992199A180B8A9A180B8B9E18A8
:10024000401EB6B201F12001F2D169463046FEF7F8
:10025000D7FF20B109B0F0BD032009B0F0BD0220E6
:100260008DF8040000208DF81400BDF80000ADF8F2
:10027000160028898DF81A000320ADF81800D7F869
:100280003001401CC7F8300104902888ADF80C00FC
:100290006888ADF80800ADF80A600020ADF80E00DF
:1002A0006A68298901A8FFF7DBF860B9BDF800008A
:1002B00007EB0010B0F8CA10891BC91EA0F8CA10BD
:1002C000082009B0F0BD44B10020606004982060AF
:1002D0000020A072B7F80801208197F82C0141078F
:1002E00006D440F0040087F82C010020FFF790FCB2
:1002F000002009B0F0BD042009B0F0BDF0B587B012
:10030000044642B1A14D95F82C01800758BF022048
:1003100040F17D8011B9052007B0F0BD08884FF687
:10032000FF7398421CBF488800286FD00B8903B325
:10033000486813F0030606D010F8087B17F003078F
:1003400049D1761EF8D19B0813D0067816F0030623
:1003500004BF067A16F003063DD1067C16F00306AC
:1003600004BF067E16F0030635D15B1E00F12000A7
:10037000EBD116885788ADF8126002208DF8000086
:1003800000208DF8100008898DF816000320ADF8C4
:100390001400D5F83001401CC5F8300103900888DE
:1003A000ADF808004888ADF80400ADF806700020EC
:1003B000ADF80A0068464A680989FFF751F868B93C
:1003C00005EB0610B0F8CA10C91BC91EA0F8CA1068
:1003D000082007B0F0BD032007B0F0BD44B10020F5
:1003E0006060039820600020A072B5F808012081A9
:1003F00095F82C01410706D440F0040085F82C0143
:100400000020FFF705FC002007B0F0BD042007B076
:10041000F0BD0000F0B5040089B00D4609D05B4F77
:1004200097F82C010026800758BF022040F1AC80CD
:1004300015B9052009B0F0BD28884FF6FF71884234
:100440001CBF6888002800F09E802989080025D0FC
:100450006A6810F0030C07D012F8083B13F003038E
:100460003ED1BCF1010CF7D1830817D092F800C03F
:100470001CF0030C04BF92F808C01CF0030C2FD131
:1004800092F810C01CF0030C04BF92F818C01CF0C6
:10049000030C25D15B1E02F12002E7D1C9B16968C6
:1004A000091D10F0030205D031F8083B9E19521EB9
:1004B000B6B2F9D180080CD00A880B8992199A1823
:1004C0000B8A9A180B8B9E18401EB6B201F12001C0
:1004D000F2D169463046FEF793FE20B109B0F0BD77
:1004E000032009B0F0BD03208DF8040000208DF832
:1004F0001400BDF80000ADF8160028898DF81A0028
:100500000320ADF81800D7F83001401CC7F83001BF
:1005100004902888ADF80C006888ADF80800ADF8A4
:100520000A6004208DF81400206807900020ADF8C0
:100530000E006A68298901A8FEF792FF60B9BDF82C
:10054000000007EB0010B0F8CA10891BC91EA0F804
:10055000CA10082009B0F0BD002060600498206037
:100560000020A072B7F80801208197F82C014107FC
:1005700006D440F0040087F82C010020FFF748FB68
:10058000002009B0F0BD042009B0F0BD08660020CD
:100590002DE9F041504991F82C21930788B058BFBC
:1005A000022032D54FF6FF73984208BF04202CD0AA
:1005B00005238DF80030ADF806000123486F8DF853
:1005C000043004283CBFD1F8BC30092B1CD20B6F7F
:1005D000181800F00300C0EBC00301EB83006B466A
:1005E000B3E8F051A0E8F051486F401C486750074D
:1005F00006D442F0040081F82C010020FFF708FB2C
:10060000002008B0BDE8F081082008B0BDE8F08106
:10061000314800B590F82C118A0787B058BF0220E6
:1006200034D5426F042A3CBFD0F8BC30092B2CD201
:10063000036F9A1802F00302C2EBC2039A0006236A
:100640008354426F036F9A1802F00302C2EBC20395
:1006500000EB83026B46121D93EC060B82EC060B3B
:10066000426F521C426790F8002112B1012280F8BB
:100670000C214A0706D441F0040180F82C11002017
:10068000FFF7C6FA002007B000BD082007B000BD84
:1006900003B581B002A901A8FEF77BFE03B000BD3F
:1006A00001B513460A4669460020FEF772FE01B006
:1006B00000BD01B513460A4600216846FEF769FEF3
:1006C00001B000BD002818BF002901D105207047E6
:1006D00000680860002070470866002030B5DFF829
:1006E0001445206E00EB4001606E002885B004EBDD
:1006F000C1034AD0187A012802D0022811D01FE085
:10070000DD8A998AD8684A1B00EB8501B2F5806FB3
:100710001869A8BF4FF4806292B200EB850029DF10
:1007200001E0988928DF112809D194F8680000F0C9
:10073000FD0040F0040084F8680005B030BD20B32F
:100740006846002100220024002536C0187A0128BE
:100750000DD0022812D101208DF80000D989988986
:10076000401AADF808009889ADF80A0006E08DF847
:10077000001018690290988AADF80C000921586899
:10078000019068461A689268904705B030BD000035
:100790002DE9F043DFF86004DFF86014401A010926
:1007A000DFF85C04006810F1010F0A4603D1DFF89E
:1007B000540400680003DFF83C3493F86840E40711
:1007C00000F1AC8089B311F00308DFF83C440BD092
:1007D0002668002E1EBF6668002E521EA8F1010872
:1007E0001034B8F1000FF3D15FEA91081DD02668EC
:1007F000002E1EBF6668002E521E2669002E1EBFE8
:100800006669002E521E266A002E1EBF666A002EE2
:10081000521E266B002E1EBF666B002E521EA8F1C4
:1008200001084034B8F1000FE1D10024002A6FD054
:10083000DFF8D48300260029A146B44659D011F030
:100840000305C64600F01480DEF80070002F1CBFC0
:10085000DEF80470002F05D19EF80D70BE423CBF3B
:100860003E46E1466D1E0CF1010C0EF1100EEBD16F
:100870005FEA910E3DD008EB0C152F68002F1CBFCE
:100880006F68002F04D16F7BBE423CBF3E46E146FD
:100890002F69002F1CBF6F69002F0CF1010C04D1D0
:1008A0006F7FBE423CBF3E46E1462F6A002F1CBF11
:1008B0006F6A002F0CF1010C05D195F82D70BE4226
:1008C0003CBF3E46E1462F6B002F1CBF6F6B002FD5
:1008D0000CF1010C05D195F83D70BE423CBF3E467F
:1008E000E146AEF1010E4035BEF1000F0CF1010CF6
:1008F000C3D14FEA096508EB1556641C7060944239
:10090000357B4FEA0539C9F100094844306091D37D
:1009100093F8680040F0010083F868000020BDE80B
:10092000F0832DE9F047B34E96F8689004465FEAED
:10093000C9700D4690469A4658BF01204FD56CB1FC
:10094000AE498C420AD3AC498C4207D2B8F1000FB1
:1009500018BF002D05D10320BDE8F0870220BDE8B7
:10096000F08718F003000CBF15F00300062036D105
:100970002068854223BF606805EB8A018842052014
:100980002DD35FEA0A0008BF042028D0706E042827
:1009900008BF072023D0316E4118042928BF091F42
:1009A000401C706601EB410006EBC0071821384679
:1009B00000F02CF9089878603C6001203872C7F884
:1009C0000C8006203D6119EA000FA7F814A005D19C
:1009D00049F0020086F86800FFF780FE0020BDE8BD
:1009E000F0872DE9F047834F97F868500446E807F1
:1009F00090469A4658BF012048D54CB17F4A944250
:100A000006D37D4A944203D229B90320BDE8F0877A
:100A10000220BDE8F087080518BF062036D12068FF
:100A20008946814523BF606801EB08318842052073
:100A30002CD35FEA080008BF042027D0786E042872
:100A400008BF072022D0396E4118042928BF091F8A
:100A5000401C786601EB410007EBC00618213046C8
:100A600000F0D4F8C6F804A03460022030724FEAD7
:100A70001930B081A6F810800620054205D145F056
:100A8000020087F86800FFF729FE0020BDE8F08724
:100A900008B9032070475749496E0160002070472C
:100AA00070B5544C216E01EB410294F868108B072D
:100AB00084B004EBC20240F18D80022802D00328EA
:100AC00047D093E0002084F86900107A01280ED006
:100AD000022840F08B809089118A401C9081D08937
:100AE000401CD08180B2884240F080800CE0D08AE7
:100AF000918A0B1AB3F5806FA8BF4FF48063181862
:100B0000D08280B2884271D168460021002300253E
:100B100000266AC0107A012810D0022815D10120C1
:100B20008DF80000D1899089401AADF808000021A5
:100B30009089ADF80A005068019036E08DF80010F9
:100B400010690290908AADF80C0000215068019065
:100B50002BE094F86900401C84F86900C0B20428B6
:100B600044DB002084F8690000216846002300254A
:100B700000266AC0107A01280DD0022812D1012067
:100B80008DF80000D1899089401AADF8080090894D
:100B9000ADF80A0006E08DF8001010690290908A06
:100BA000ADF80C0008215068019068461268926800
:100BB0009047606E401E606605D194F8680000F0B2
:100BC000FD0084F86800206E401C042820660DD1CA
:100BD00025660BE0480709D501F0FB00616E84F83B
:100BE000680019B140F0020084F86800FFF776FD54
:100BF00004B070BDD06B0020AC4400209C440020A9
:100C000014100010140000109C440020002200F07A
:100C100011B88268521C8260426832B10268531C6B
:100C2000036011704168491E4160704762F30F22F2
:100C300062F31F42401810F0030308D0C91A1FD3F3
:100C4000DB0748BF00F8012D28BF20F8022D130054
:100C500030B414461546103928BF20E93C00FAD8B4
:100C6000490728BF20E90C0048BF40F8042D89003F
:100C700028BF20F8022D48BF00F8012D30BC704776
:100C8000C91818BF00F8012DCB0728BF00F8012DA7
:100C90007047FEE72DE9F04F82460FF24860A5B09D
:100CA00015461E46D0E90023CDE912230020049109
:100CB0000D900DF150086FF0004900E03D44002018
:100CC000ADF8020012AB4FF0FF3229460DF10200E1
:100CD00001F0A5F80746012F04DA2878471EBF4126
:100CE000FF43FF0FBDF8020025280CBFA7F1010B41
:100CF000BB46BBF1010F0EDB2C4614F8011B049818
:100D0000D0470028049000F0F3800D98401CBBF100
:100D1000010B0D90F1D1BDF80200252807D100206C
:100D20000790089009900A900B900C9005E000281D
:100D3000C4D10D98DEE240F0010015F8011F202912
:100D4000F9D023290DD02B2904D02D2906D0302904
:100D50000AD00CE040F0020080B2EEE740F0040060
:100D6000FAE740F00800F7E740F01000F4E72A291E
:100D70000ED13168316051F8042B3160002A0F9296
:100D800004D5514240F004000F9180B26D1C11E077
:100D900000210F9109E00F99494505D001EB81032E
:100DA00002EB430130390F916D1C2A78A2F130011A
:100DB0000A29F0D329782E2903D04FF0FF310E9164
:100DC0001DE015F8011F2A2907D1316831606D1C1B
:100DD00051F8042B31600E9211E000210E9109E0D0
:100DE0000E99494505D001EB810302EB43013039EF
:100DF0000E916D1C2A78A2F130010A29F0D3ADF8CA
:100E000040000FF2E840297801F01AF808B115F80F
:100E1000010B8DF842009DF84200682802BF297836
:100E20006829622005D06C2804BF28786C2803D17B
:100E300071208DF842006D1C14A8069015F8017BF6
:100E4000B7F125002AD01C3800F0DB80001F0228F3
:100E500040F2D780133800F0FC80093800F0D180D0
:100E6000801E00F06781401E00F03D81401E022878
:100E700040F2C780001F00F03681401F00F09280D2
:100E8000401E00F0E680401E35D0C01E0BD0801EF4
:100E900000F0DF80C01E00F0DC806EE125208DF8C0
:100EA0005000012073E19DF842006C2830683060EA
:100EB00014D050F8044B306005940E9F002F04D5D9
:100EC000204600F0C9FF074606E03A4600212046CA
:100ED00000F0DEFF00B1071B089759E150F8042B22
:100EE000306002A9504600F03FFA002840F15081DE
:100EF0004FF0FF30FEE131683160002251F8040B01
:100F000031600021CDE9020114A80590DDE902015C
:100F10009142069F08BF90424FF03C0C01D10E9ABF
:100F2000C2B100F00F033033DBB23A2BA8BF273336
:100F3000ACF101020009BB54944640EA0170090972
:100F40000022914208BF904204D0059A07EB0C039F
:100F50009A42E6D307EB0C000590CCF13C010E98C9
:100F60000891814209DA401A0A904FF6EF71BDF8F4
:100F700040000840ADF840000AE1002840F1088137
:100F80009DF8400000F01400102840F001810F98F7
:100F9000079A801A0A9A801A401A0128C0F2F8802B
:100FA0000A90F5E09DF8420062281AD0682806D021
:100FB0006A280CD06C281CD0712808D019E0306841
:100FC000306050F8041B30600D980880E0E0306815
:100FD000306050F8042B30600D98C117C2E9000151
:100FE000D6E03068306050F8041B30600D9808700F
:100FF000CEE03068306050F8041B30600D98086017
:10100000C6E03068C01D20F007023260D2E900015E
:1010100008323260CDE90201002902D507982D215E
:101020000AE0BDF84000810702D507982B2103E0B4
:10103000C00705D50798202108F80010401C07902C
:1010400014A8079908440590394602A800F098FBB7
:101050009EE09DF842006C280DD0712818BF6A28C8
:1010600009D13068C01D20F007023260D2E90001CA
:101070000832326005E03168316051F8040B3160AC
:101080000021CDE902019DF84200682803D1DDE985
:10109000020180B20BE0622803D1DDE90201C0B297
:1010A00005E0742818BF7A2804D1DDE90201002187
:1010B000CDE902019DF84000000732D5DDE90223A9
:1010C0000020834208BF82422BD047F020007828BE
:1010D00027D10798302108F80010401C411C0791C7
:1010E00008F800701DE09DF84200314600F005F957
:1010F000CDE90201DDE9022300218B4202DA0798E3
:101100002D210AE0BDF84000810702D507982B2168
:1011100003E0C00705D50798202108F80010401CFF
:10112000079014A8079908440590394602A800F0D2
:10113000A1FA2DE09DF842006C2809D0012007900B
:101140003068306050F8041B30608DF850101FE09C
:101150003068306001AA50F8041B3060ADF804100C
:101160000020ADF8060002A94FF0FF300E90504667
:1011700000F0FAF800280BD5BAE625208DF85000CB
:1011800001200790380003D088F8017002200790F2
:101190000F980799401A0A99401A0899401A0B9912
:1011A000401A0999401A0C99471A9DF840004007C7
:1011B00010D42020012F8DF800000BDB3C460123CA
:1011C0006A4602A9504600F005FE00287FF490AE62
:1011D000641EF4D1DDF81CB0BBF1000F14AC0DD0CF
:1011E00014F8011B0498D047002804903FF480AE07
:1011F0000D98401CBBF1010B0D90F1D130208DF802
:1012000000000A9C012C0ADB01236A4602A9504611
:1012100000F0E0FD00287FF46BAE641EF4D1DDF831
:1012200020B0059CBBF1000F0DD014F8011B0498F1
:10123000D047002804903FF45BAE0D98401CBBF1F2
:10124000010B0D90F1D130208DF800000B9C012C8A
:101250000ADB01236A4602A9504600F0BBFD0028C4
:101260007FF446AE641EF4D105980899DDF824B0E9
:101270004418BBF1000F0DD014F8011B0498D0479F
:10128000002804903FF434AE0D98401CBBF1010BD4
:101290000D90F1D130208DF800000C9C012C0ADB60
:1012A00001236A4602A9504600F094FD00287FF40D
:1012B0001FAE641EF4D19DF8400040077FF5FFACDF
:1012C0002020012F8DF80000FFF6F9AC01236A46BB
:1012D00002A9504600F07EFD00287FF409AE7F1E73
:1012E000F4D1ECE40000000000000000686A6C74B7
:1012F0007A4C000025B0BDE8F08F622826D068281F
:101300001DD06A2808D06C2827D0712804D07428F2
:1013100023D07A280CD020E00868C01D20F00700F8
:101320000860D0E90023083008601946104670476D
:101330000A680A6052F8040B0A60002170470A68C4
:101340000A6052F8040B0A6000B20BE00A680A60F7
:1013500052F8040B0A6040B204E00A680A6052F8CE
:10136000040B0A60C11770472DE9F44F0D4694B085
:10137000D5F830A0BAF1000F804648BF6FF0004AA0
:1013800000F0B2FD696B401801900FF67820D0E9AB
:101390000023CDE9022395F83800400702D40198D4
:1013A000412805D240200DF110090190002609E0E6
:1013B00000F0A0FD5FEA0009F8D14FF0FF3056E1E0
:1013C000AAEB040ABAF1010FC0F2CE80149801888A
:1013D00002AA0DF1010000F0E5FD0028044600F12D
:1013E000DE801498008810B9641E00F1D880A245F0
:1013F000C0F2BA80686901992218914280F0A280F7
:101400006E634042296A401AA969401A696A401A03
:10141000E969401AA96A461A95F83800400710D4BD
:101420002020012E8DF800000BDB374601236A4691
:101430002946404600F0CEFC002840F0B0807F1ED8
:10144000F4D1D5F814B0BBF1000F4F460DD017F80A
:10145000011BA868C0470028A86000F0A080E86AC7
:10146000401CBBF1010BE862F1D130208DF8000087
:101470002F6A012F0ADB01236A462946404600F005
:10148000A9FC002840F08B807F1EF4D1D5F818B05D
:10149000EF68BBF1000F0CD017F8011BA868C0471C
:1014A0000028A8607BD0E86A401CBBF1010BE86211
:1014B000F2D130208DF800006F6A012F09DB012383
:1014C0006A462946404600F085FC002867D17F1E09
:1014D000F5D1E868A969D5F81CB04718BBF1000F31
:1014E0000CD017F8011BA868C0470028A86056D088
:1014F000E86A401CBBF1010BE862F2D130208DF8A4
:101500000000AF6A012F09DB01236A4629464046E5
:1015100000F060FC002842D17F1EF5D195F838001C
:1015200040070DD52020012E8DF8000008DB012397
:101530006A462946404600F04DFC80BB761EF6D137
:1015400000266E61224668690DF10101484400F0F1
:1015500037FD6869201868611498801C1490801EFB
:10156000008800287FF42CAF686B6969401A296AEB
:10157000401AA969401A696A401AE969401AA96AB9
:10158000A0EB010A95F83800400710D4BAF1010F1A
:101590000DDB5446A8682021C047A86010B94FF061
:1015A000FF365DE0E86A401C641EE862F2D16B69B8
:1015B0004A462946404600F00DFC0028EFD12C6A2F
:1015C000012C0ADBA8683021C0470028A860E6D0BB
:1015D000E86A401C641EE862F4D1AB69EA682946F7
:1015E000404600F0F7FB0028D9D16C6A012C0ADBD9
:1015F000A8683021C0470028A860D0D0E86A401C05
:10160000641EE862F4D1E868A969EB6942182946CA
:10161000404600F0DFFB0028C1D1AC6A012C0ADB98
:10162000A8683021C0470028A860B8D0E86A401CEC
:10163000641EE862F4D195F8380040070ED5BAF17F
:10164000010F0BDBA8682021C0470028A860A6D0A6
:10165000E86A401CBAF1010AE862F3D16E616E6378
:1016600004A881451CBF484600F0E6FC304615B092
:10167000BDE8F08F2DE9F343054608462F696F2832
:1016800008BF082405D041F02001782914BF0A249E
:1016900010243C26D5E90023642818BF6928904609
:1016A000994606D100218B4203DAD8F1000869EB94
:1016B00049090020814508BF80450CD1286B50B9ED
:1016C000082C38D195F83800000734D530203B2657
:1016D00087F83B002FE0701E0090064640464946C2
:1016E0002246E31700F0E8FC02F13000C0B23A28CD
:1016F00003DB9DF8041051390818B8554946404697
:101700002246E31700F0D8FC804689460020814538
:1017100008BF804503D0E868B9198842DBD3082C9C
:1017200009D195F83800000705D5B85D302802D0FA
:10173000761E3020B855B919E960C6F13C00296B16
:10174000A861884208DA081A28624FF6EF71288FDC
:1017500008402887BDE8F38300290ED595F8381096
:1017600001F01401102908D1696B6A69891A2A6A83
:10177000891A0E1A012EA8BF2E62BDE8F38300005D
:101780002DE9F24F04468EB0D4E90001CDE9020103
:1017900004AF9DF8380040F0200BBBF1610F0AD078
:1017A000206B002848BF062004D408BFBBF1670F98
:1017B00001D1012020636168C1F30A5040F2FF7239
:1017C00090421CD1080304BF2068002809D10320DF
:1017D000A0619DF8380061381A2835D30FF23861BE
:1017E00008E00320A0619DF8380061381A2828D34A
:1017F0000FF21C61E068032200F0E2FBBDE101286A
:1018000015DA204600F0CFFC012810DB002500206F
:10181000BBF1610F1FD1E16830220A708A1CE260BF
:101820009DF83820612A0CBF782258220FE06268A8
:1018300040F2FE3161F31E52451A62604FF0FF30F4
:10184000E6E70FF2C851D5E70FF2C851D2E74A7068
:101850006169891C616110B90026002584E1BBF132
:10186000610F40F09880206BD4E900AB00284CBF9A
:101870002126461CDDE902010022002300F0B6FC0F
:1018800036B23ABF8BF00040CDE902A0CDE902AB01
:1018900006F101082D1FB8F1010F8DF810200DF190
:1018A000110736DBDDE902010022002300F0B6FC5F
:1018B0002FD21C2102A800F0C9FCDDE9020100F0D2
:1018C0004FFDA8F10708B8F1010F814609DB00F0D0
:1018D00073FD02460B46DDE9020100F085FDCDE90E
:1018E0000201F81D072105E009F00F0200F8012DA3
:1018F0004FEA2919B9F1010F01DB491EF4D5491E40
:101900005CBF002200F8012DF9D5C71DB8F1010F09
:10191000C8DA0DF11100391AB142B8BF0E4636B21D
:1019200030000DF111072FD4884206DA04A90144D2
:1019300049780829A8BF0F2100DA002104AA02442F
:1019400000E0761E12F80139401E8B42F9D00F29B3
:1019500004D104A901444A78521C4A70002802D5D7
:1019600004AF761C2D1D36B2701E0DD439180A78BE
:101970003032D2B23A2A03DB9DF838303A3B9A181B
:10198000401E01F80129F2D5206B002840F1EC80BF
:10199000701E2063E8E0DDE902010022002300F070
:1019A00025FC3CBF81F00041CDE902012DB247F298
:1019B000975068434B49DFF8309190FBF1F52DB219
:1019C000C5F1070ABAF1010F90461CDBDDE9026799
:1019D0005FEACA7007D542464B463046394600F0AA
:1019E000C3FD06460F464046494642464B464FEA2F
:1019F0006A0A00F0B9FDBAF1000F80468946E7D1C6
:101A0000CDE9026724E0CAF1000A0026374F14E04E
:101A10005FEACA7007D542464B463046394600F069
:101A2000A3FD06460F464046494642464B4600F057
:101A30009BFD4FEA6A0A80468946BAF1000FE7D15A
:101A4000DDE9020132463B4600F060FECDE90201CD
:101A5000BBF1660F216BDFF898900CBF05F10A000F
:101A600006204618142EA8BF132630208DF810002B
:101A70000DF11107012E3DDBDDE9020100F086FCCE
:101A800007F1080104220A23B0FBF3F303EB8307F9
:101A9000A0EB4700303001F8010C0A20B3FBF0F056
:101AA00000EB8007A3EB47033033521E01F8023DE1
:101AB000E9D1083E012E01F10807DBDBDDE9020177
:101AC00000F064FC00F082FC02460B46DDE90201F6
:101AD00000F08AFC00224B4600F046FDCDE90201F1
:101AE000CAE700BFA0860100000024400000F03FCC
:101AF00084D797410DF11100381A0DF1110702E05A
:101B0000401E6D1E7F1C39783029F9D0BBF1660F5D
:101B100008BF691C04D0BBF1650F0CBF0121002177
:101B2000226B8E1836B2B042B8BF064636B23100CC
:101B30001AD4814204DA785C3528A8BF392000DA4B
:101B400030207A18521E00E0761E12F80139491E24
:101B50008342F9D0392802D1785C401C785400299E
:101B600002D57F1E761C6D1C2DB29DF83810009595
:101B700033B23A46204600F003F80FB0BDE8F08FCC
:101B80002DE9F04786B006468A4690461D4600F08D
:101B900006FF012D406A376B90F8009002DA0125AC
:101BA0000FF278284AF02000BDF93840662808BFB7
:101BB000641C12D0672878D114F1040F7BDBBC427F
:101BC00079DA96F83800641C000702D4BD42B8BF29
:101BD0002F4624B23F1B48BF002724B2F068B169EA
:101BE000012C23DA4A1C30234354012F03DA96F8E0
:101BF0003800000703D5F06800F80290521CE74255
:101C0000B8BF7C4224B260427062E719AF42B26151
:101C1000B8BF3D46F068B3692DB2F5612A4641462A
:101C2000184400F0CDF9781BB062BCE02246954222
:101C3000084416DA2A46414600F0C2F9B16969182B
:101C4000601B012FB161706203DA96F8380000075B
:101C500005D5F06800F80190F069401CF061B762AA
:101C6000A1E0414600F0ACF9B06920182D1B012F0E
:101C700003DA96F83810090703D5F16801F80090E7
:101C8000401CB0612DB2AF42B8BF3D46F068B369A9
:101C90002DB22A4608EB0401184400F091F9B0690E
:101CA0002818B061781B70627DE0BAF1610F14D121
:101CB0004FF0700A16E0BD4204DA96F838100907B2
:101CC00058BF2F467F1E48BF0027BAF1670F14BFC9
:101CD0004FF0450A4FF0650A04E0BAF1410F08BF22
:101CE0004FF0500AB169F368481CB061012F18F831
:101CF000012B5A5403DA96F83810090717D5F16802
:101D0000431CB36101F80090012F10DB6D1E2DB252
:101D1000AF42B8BF3D46F0682DB22A46414618444E
:101D200000F04EF9B0692818B061781B7062F06855
:101D3000B1690144200081F800A004D42B20487030
:101D400001F1020804E02D224A7001F10208644208
:101D5000002502AF08E00A22684600F039FE01982B
:101D600007F8010B6D1C009C21B20129F3DA022D4A
:101D700006DA4AF02000652804BF302008F8010B7D
:101D80004DB9302008F8010B07E06D1E02A8405D38
:101D9000303008F8010B012DF7DAF068B16908441A
:101DA000A8EB0000F06196F8380000F0140010284D
:101DB0000DD17069B1690818716A0818F1690818BD
:101DC000B16A0818716B8842BCBF081A306206B04D
:101DD000BDE8F087F8B504460D4616461F460020BC
:101DE00077B116F8011BA868A047A86030B1E86A6F
:101DF000401CE86200207F1EF3D1F2BD4FF0FF309F
:101E0000F2BD000000000000000000006E616E00E6
:101E10004E414E00696E6600494E46003000F8B5EE
:101E200004460D4616461F4600F0E3FD3B4632468B
:101E30002946204601B0BDE8F04000F0F0BDFEE7C5
:101E40000278C9B28A421AB11CBF10F8012FF9E713
:101E500018BF00207047FEE700F10103810704D09E
:101E600010F8011B89B18107FAD10268B2F1013182
:101E7000914311F0803F04BF50F8042FF6E710F8AB
:101E8000011B11B110F8011BFBE7C01A7047FEE7F8
:101E9000C9B2830706D0521E22D310F8013B9942E3
:101EA000F7D11FE0083A13D302F1040241EA0121FD
:101EB00041EA014150F8043B121F21BF4B40A3F1FE
:101EC000013C2CEA030C1CF0803FF3D0C9B2001F88
:101ED000083210F8013B521E28BF91EA030FF8D8D0
:101EE00018BF0120401E704780B500F082FD012020
:101EF00002BDFEE770B5054605F10F00C408AFF35B
:101F00000080E400A54232D2082C04D2082402E06A
:101F1000083000F091F82248026811000CD1011D30
:101F20000A6802B31368A34238BF111DF8D310E04A
:101F30001D68A5420DD2191D0B68002BF8D112683F
:101F4000011D00E0191D0B6893420CD01D68A542CD
:101F5000F8D361B10D682A68A2F10803A3420AD23E
:101F60006A680A600FE000F07DFD0028D0D1AFF371
:101F70000080002070BD2B190B60121B6E685E6024
:101F80000B681A602C60096800291DBF4A68002A86
:101F9000091D00210160AFF3008005F1080070BD4C
:101FA000106F002070B504460D46164600F021FD66
:101FB000324629462046BDE8704000F023BDFEE7CA
:101FC00062B38B0708D0521E11F8013B00F8013BA9
:101FD00000F024808B07F6D1830740F0208000BFFB
:101FE000103A07D330B4B1E83810103AA0E83810EE
:101FF000F9D230BC530724BFB1E80810A0E808109C
:1020000044BF51F8043B40F8043BD20724BF31F8E9
:10201000022B20F8022B44BF0B7803707047083A5C
:1020200007D3B1E80810083A40F8043B40F804CB65
:10203000F7D25307E4E7FEE700B9704738B5A0F1DF
:1020400008042068082833D310F0070F30D1AFF30D
:1020500000801848416809B18C4203D26160446035
:1020600017E019464B680BB1A342FAD30B68CD18A1
:10207000AC421BD3A54204D12268D2180A600C4698
:1020800007E04A681AB1236823449A420ED362607B
:102090004C60616851B12268A3188B4206D10023BD
:1020A000036008688018206048686060AFF30080B3
:1020B00031BD0000106F00201B4213D1094236D100
:1020C0002AB18446B0FBF2F002FB10C2704700F068
:1020D000DFBCFCD30022002370470B00020000216C
:1020E00000207047904271EB030CF6D370B5B1FA43
:1020F00081F4B3FA83F52C1BA340C4F1200532FA16
:1021000005F63343A2405FF00046E64002E05B087C
:102110005FEA3202841A71EB030524BF2046294688
:102120007641F4D302000B003000002170BD012A7B
:10213000CFD970B5140C20D0B1FA81F4B2FA82F57F
:10214000C4F120046419B4F12006D6D3B2405FF084
:102150000044F440002502E052085FEA3303C61A47
:1021600071EB020E24BF3046714664416D41F3D3DA
:1021700002000B002000290070BD0C46B1FBF2F1FB
:1021800002FB11452D0445EA1045B5FBF2F402FBB4
:10219000145580B240EA0545B5FBF2F002FB10523F
:1021A00040EA044070BD30B4436803F000420121AE
:1021B000C3F313034360002B04BF0368002B08D153
:1021C0000DE00368DD0F45EA440444605B000360F2
:1021D000491E4468E302F4D5C4F313034360436823
:1021E0001A434260084630BC7047FEE74FF4001CBB
:1021F0001CEB410F94BF1CEB430F09E041EA030CB9
:1022000050EA4C0C52EA0C0C03D2994208BF90429F
:10221000704714BF8B4282427047FEE74FF4001CA8
:102220001CEB410F94BF1CEB430F09E041EA030C88
:1022300050EA4C0C52EA0C0C03D28B4208BF82428B
:10224000704714BF994290427047FEE770B504464C
:102250000D466068C0F30A5040F2FF71884207D112
:102260006068000304BF2068002817D0022070BDFA
:1022700020B92046FFF797FF012866DA012D0FDB12
:1022800040F2FF71091A8D420AD3606800284CBFE2
:102290009FED2F0B9FED300B84ED000B012070BDE7
:1022A0004142A942616806DA6FF31E51401941EAC2
:1022B0000050606040E0401E63684519012205F14E
:1022C000350062F31F53352801F00041636003D3EA
:1022D00061600020206070BD002015F11F0F04DA3E
:1022E000206823600022203562606A4212D0401EBE
:1022F00025688041C2F12003C0439D4045EAD0706B
:1023000025686668D54006FA03F32B4323606368AB
:10231000D340636062680A43B0F1004F626003D843
:102320000DD12078C0070AD52068401C20602068A5
:1023300028B96068401C60604FF0FF3070BD606875
:10234000884204BF20680028F6D1002070BD00BF7D
:10235000000000000000F0FF000000000000F07F1F
:10236000F446400D40EAC120490006D200F014F8BE
:10237000004248BF6FF00040604700F00DF84FF09A
:10238000004188428CBF084640426047400D40EA09
:10239000C120490080F00D8040F00040490DA1F5BA
:1023A0008061491C05D4D1F11F0154BFC840C0173A
:1023B00070474FF000007047010040F10980F4467B
:1023C000404200F005F851F000416047010000BFB5
:1023D00009D0B0FA80F18840C91CC1F584610905B3
:1023E00001EBD02140057047F0B44FF0004591EA71
:1023F000030F44BF6B4000F04DBB00BF841A71EB6C
:10240000030604D26E40001BB141121973414FF410
:10241000001C1CEB410F34BF7CEB430684E00C0D29
:10242000A4EB1356362E7DDC012E43DC45EAC32394
:1024300043EA525312BFD20292025B08240545EAD6
:10244000C12141EA5051D2EBC020994125D407D196
:10245000B0FA80F610FA06F164D00020203608E0C9
:10246000B1FA81F6B140C6F1200220FA02F211431E
:10247000B0404FEAF474B4EB465434F001064FEA2E
:1024800074040AD8D6F50016760D04F00044F04026
:1024900061FA06F25040F1404840C00A40EA41501B
:1024A00021F0004128BF5FEA500550F1000044EBE5
:1024B000D12137E045EAC323DB0A45EAC121C90A35
:1024C000B6F120050EDD42EA0242120CC5F12006EB
:1024D00003FA06F6EB4042EA06056D42984161F1C7
:1024E00000010DE062FA06F5F240554063FA06FC81
:1024F00082EA0C02F3405A406D42904161EB0301C5
:1025000011F4801F05D1641E620502D06D004041A8
:10251000494121F48011430875F1004350F1000056
:1025200041EB0451F0BC70471CEB410F15D223F076
:10253000004352EA43060BD04FEA4C0CBCEB410F70
:1025400004D80C0D661E342EB7DDEBE7801A9941D6
:1025500050EA410608BF0021E4E708BF1CEB430F27
:1025600028BF6FF00001DDE7B0B581EA030C0CF085
:10257000004C40F2FF7515EA11541DBF15EA1357C0
:10258000AC42AF4239E0E41923EA455343F48013E7
:10259000C90241F0004141EA505EC7021100A7FBA9
:1025A000020200284FF00000EEFB01204FF0000176
:1025B000E3FB072118BF42F0010240180021494106
:1025C000E3FB0E01A4F580640F0302D252004041E8
:1025D000494154F101046CDD470872F1004250F1A9
:1025E000000051EB0451A1F580115CBF41EA0C01E0
:1025F000B0BD4CEA05510020B0BD05EA1357AC420E
:1026000014BFAF4241E050EA410E1CBF52EA430EF4
:1026100002E061460020B0BD24423C441BD15FEA89
:10262000070EF6D0090302BF01460020AEF1140EDA
:10263000B1FA81F7AEEB070401FA07FE0C37C7F1D8
:10264000200100FA07F7C8404EEA000E23EA45537E
:1026500043F48013A2E733F00043B3FA83F704BFD7
:10266000B2FA82FE77440B3FE41BB7F1200E2FBF76
:1026700002FA0EF3BB40C7F1200E22FA0EFE38BF5D
:1026800043EA0E03BA40641C82E750EA410E14BFCD
:1026900052EA430E6FF000014FF4001717EB430F9F
:1026A0008ABF194617EB410FB5E74CEA05510020E8
:1026B000B0BDD4F10104B4F120070FDAC4F1200752
:1026C000520828BF42F0010210FA07F501FA07F795
:1026D000E1BF2A43E0403843E1400FE0352C98DC6D
:1026E000C7F1200452EA400220FA07F218BF42F074
:1026F000010231FA07F0A1400A43002172F10042C1
:1027000050F1000051EB0C01B0BDFEE72DE9F041A6
:1027100040F2FF7581EA030C0CF0004C15EA1154ED
:102720001DBF15EA1357AC42AF42E9E0BC41C1F30B
:102730001301C3F31303801A994143F4801304D2A5
:10274000641E4000494180185941C90241EA505174
:10275000B1FBF3F603FB1611A2FB0675D7EBC02005
:10276000A94102D2761E80185941C90241EA50514E
:10277000B1FBF3FE03FB1E11A2FB0E75D7EBC020CD
:10278000A94103D2AEF1010E80185941890241EAF4
:102790009051760546EA8E2EB1FBF3F603FB161137
:1027A000A2FB0675D7EB8020A94102D2761E8018C5
:1027B0005941C90241EA50514EEA060EB1FBF3F607
:1027C00003FB1611A2FB0675D7EBC020A94102D26C
:1027D000761E80185941C90241EA5051B1FBF3F706
:1027E00003FB1711A2FB0735D3EBC020A94167F10A
:1027F00000070CBF004247F0010766F3D5274FEAF8
:102800001E31B80814F5806414DDBD0775F100426F
:1028100050EB0E5051EB045111F5801F5CBF41EAA3
:102820000C01BDE8F0814CF07F6141F0E0410020F7
:10283000BDE8F081BD076D0840EA0E5041F48011FB
:10284000D4F10104B4F120060ADAC4F12006020032
:10285000E04001FA06F3E1401843B24015430EE0B0
:10286000342C14DCC6F1200445EA40056D0820FA3A
:1028700006F2154321FA06F0A1400D43002175F13F
:10288000004250F1000051EB0C01BDE8F081002046
:102890005FEA0C01BDE8F081CFB992185B41B3FA51
:1028A00083F704BFB2FA82F6BF190B3FB7F12006D7
:1028B0002FBF02FA06F3BB40C7F1200622FA06F644
:1028C00038BF3343BA401CB1E419641E2FE77F427E
:1028D00031F00041B1FA81F404BFB0FA80F6A419D6
:1028E0000B3CB4F120062FBF00FA06F1A140C4F161
:1028F000200620FA06F638BF3143A0403C1B16E7FD
:10290000AC421ABF05EA1357AF4214E050EA410641
:102910001CBF52EA4306BFE750EA41073046614612
:102920001CBF41EA0551BDE8F08152EA430C08BFE3
:10293000C143BDE8F08100204FF4001616EB410FB3
:1029400098BF16EB430F08BF16EB410F24BFC143DE
:1029500005E016EB430F0CBF61464CEA0551BDE89C
:10296000F081FEE780B5134800F0FEF80FF24C024C
:102970000FF244010160426241600FF2440282633F
:1029800081600FF24402C160016141618161816235
:10299000C16201634163C2630164416401BD10B55A
:1029A000044800F0E1F80446206808B9FFF7DAFFB0
:1029B000204610BD10440020000000002E00000042
:1029C00066616C736500000074727565000000003C
:1029D00091FBF2F303FB1211C0E900317047FEE7EF
:1029E00010B50446DFF8180000F0BEF850F82400D7
:1029F00010BD80B5DFF8080000F0B6F8806902BDB0
:102A0000A443002030B430B90FF24800D0E90045AB
:102A1000C2E900451BE00170012030BC704730B4B2
:102A200031B90FF23800D0E90045C3E900450EE0A6
:102A30001AB930BC6FF00100704708B10A78028003
:102A40000978481E804130BCC043C00F7047002049
:102A500030BC7047000000000000000000000000D3
:102A6000000000000749086808B1002070470648C8
:102A7000C008C00008600549C908C900091A0160FA
:102A8000704700BF2C6F0020B74C0020B04E0020D4
:102A90007047FEE7841A71EB030603D2001BB141B5
:102AA000121973414FF4001C1CEB410F34BF7CEB37
:102AB000430443E00C0DA4EB1356352E50DC45EADD
:102AC000C323DB0A45EAC121C912B6F120050DDD99
:102AD00063FA05F6EB4086EA0305124218BF45F09B
:102AE0000105C01851F100010CD213E062FA06F59D
:102AF000F2405540F3415A40B340F3405A408018E9
:102B0000594107D349085FEA30005FEA350528BF1D
:102B100045F0010501F58011420875F1004250F1C0
:102B2000000041EB0451F0BC4FF4001C1CEB410FC2
:102B300038BF70470020090D090570471CEB410F95
:102B400010D252EA43060BD0BCEB410F05D80C0D56
:102B5000AB43661E342EB5DD02E0AB43801859410D
:102B6000F0BC7047F0BC70477047FEE72DE9F041BC
:102B700005460FF6D8300FC884B06E46002486E8AC
:102B80000F006888DFF8B06B3788ADF802000022CC
:102B900028798DF804000023698828798F421EBFA8
:102BA0000123B78A8F4250D0378D02238F421EBF38
:102BB0000323B78F8F4248D0B6F8507004238F425A
:102BC0001EBF0523B6F864708F423ED0B6F8787009
:102BD00006238F421EBF0723B6F88C708F4234D075
:102BE00000272878092800F2AE80DFE800F005050C
:102BF000917878959B9FA5AA002F6AD0787CC00712
:102C000067D5F868A04660B1387C08EB0001C9B20E
:102C100006F1A40000F021FEF86808F101088045E3
:102C2000F2D34FF6FF703880FC60FF20B870387424
:102C30007C60BC60787C00F0F80078748DF800400F
:102C40002878012818BF002031E003EB830706EB4A
:102C5000870720E07F1C5033082FC1D2B3F800C093
:102C60008C4514D07F1C082FBAD2B3F814C08C4501
:102C70000DD07F1C082FB3D2B3F828C08C4506D0E6
:102C80007F1C082FACD2B3F83CC08C45E2D107EBD7
:102C9000870306EB8307002F1CBFBB788342A0D0BD
:102CA000521C174607EB870306EB8303D4E78DF826
:102CB0000800684600F0EAFD684601F0DFF9684662
:102CC00001F0FAFD684601F09FFE684602F0E8FA5E
:102CD00039E001208DF80000A8680290E9E78FB183
:102CE000B868A96888420DD1787CC1070AD5D6F8A2
:102CF000A010491C00F0FE00C6F8A01040F004002F
:102D0000787420E002208DF80000E8680390D0E796
:102D100003208DF80000CCE704208DF80000E8685F
:102D20000290C6E705208DF80000C2E706208DF866
:102D30000000E8680290BCE7072001248DF800003D
:102D4000B7E7E8680290D6F8A000C8B3002506F1FE
:102D500011073878410702D480072DD564B317F8DE
:102D60000F1C37F8110C00F023FC28B305EB85018C
:102D700089008628725AADF80220314489788DF88E
:102D8000041003D108208DF8000003E009218DF81C
:102D900000100290684600F079FD684601F06EF977
:102DA000684601F089FD684601F02EFE684602F093
:102DB00077FA04B0BDE8F0816D1C1437082DC8D334
:102DC00004B0BDE8F081FF2100B583B0DFF86809E9
:102DD000437C817003F0F803437401740023C360E3
:102DE00043608360817580F8241080F82A1080F891
:102DF000381080F83E1080F84C1080F8521080F89F
:102E0000601080F8661080F8741080F87A1080F8EE
:102E1000881080F88E1080F89C104FF6FF7290F8A2
:102E2000253090F89D10028003F0F80380F82530DB
:102E300001F0F801002303628361C36180F89D10F3
:102E4000502190F83930029103F0F80380F83930BE
:102E5000082100234363C36203630191012190F8B9
:102E60004D30009103F0F80380F84D304FF44D7170
:102E70000023836403644364828202858287A0F80E
:102E80005020A0F86420A0F87820A0F88C204FF4FF
:102E9000207290F8613003F0F80380F8613000236D
:102EA000C3654365836590F8753003F0F80380F8D7
:102EB0007530002303678366C36690F8893003F09A
:102EC000F80380F889300023C0F88430C367C0F865
:102ED0008030C0F89830C0F89030C0F89430431873
:102EE00000F1B401A43000F041FC00B1032003B0B4
:102EF00000BD02F0F5BC2DE9F04FDFF83C5881B081
:102F0000804629880020002641451EBF0120A98A4D
:102F10004145B2461CD0298D022041451EBF0320E9
:102F2000A98F414514D0B5F85010042041451EBF6B
:102F30000520B5F8641041450AD0B5F87810062090
:102F400041451FBF0720B5F88C104145002003D133
:102F500000EB800105EB81004FF0FF0907E08A8F4D
:102F6000424540F08E8000EB800105EB8100002897
:102F700000F0A1802B8800240021002243458078A6
:102F80001EBF0122AB8A43451BD02B8D0222434535
:102F90001EBF0322AB8F434513D0B5F85030042237
:102FA00043451EBF0522B5F86430434509D0B5F846
:102FB0007830062243451EBF0722B5F88C304345C2
:102FC00057D102EB820305EB83071CE05B1C5032F8
:102FD000082B4ED21788474511D05B1C082B48D2CE
:102FE000978A47450BD05B1C082B42D2178D47456B
:102FF00005D05B1C082B3CD2978F4745E6D103EBED
:10300000830205EB8207A7B3BA78824206D0491C37
:103010000B4603EB830205EB8202D9E7786820B107
:1030200002F0ECFB040018BF0324F8684FF0000B1B
:1030300060B1387C0BEB0001C9B205F1A40000F0CF
:103040000CFCF8680BF1010B8345F2D34FF6FF70CF
:10305000388087F8029087F81090787C00F0F800AC
:1030600078740020F8607860B86020001CBF052CE0
:1030700003260AF1010A504600EB800105EB8101AD
:1030800001E0401C5031082815D20A8842453FF41F
:103090006AAF401C08280ED28A8A42453FF463AFCB
:1030A000401C082807D20A8D42453FF45CAF401C03
:1030B0000828FFF454AF3EB9404602F015FC18B1A1
:1030C00007280CBF07260326304601B0BDE8F08F65
:1030D000002302F0F2BA2DE9F04F05465FEA03083B
:1030E00081B08946924608BF0E2000F04581B9F1B3
:1030F000070F18BFB9F1080F08D1BAF1000F05D0BA
:10310000BAF1090F02D202F0FCFB18B9072001B096
:10311000BDE8F08FDFF820763A88002600200021F5
:10312000AA421EBF0121BA8AAA426ED03A8D02215C
:10313000AA421EBF0321BA8FAA4266D0B7F8502018
:103140000421AA421EBF0521B7F86420AA425CD020
:10315000B7F878200621AA421EBF0721B7F88C20B5
:10316000AA4252D0002404B3E06850457BD2B34653
:1031700070B1207C0BEB0001C9B207F1A40000F094
:103180006CFB0BF101005FFA80FBE0688345F0D334
:103190004FF6FF702080FF20A0702074607C00F04C
:1031A000F8006074E6606660A66000203B8800223C
:1031B0004FF6FF718B421EBF0122BB8A8B4200F08B
:1031C00080803B8D02228B421EBF0322BB8F8B422D
:1031D00077D0B7F8503004228B421EBF0522B7F8D3
:1031E00064308B426DD0B7F8783006228B421EBF18
:1031F0000722B7F88C308B4263D00024002C00F0FB
:103200009080258084F802903FE001EB810207EB7B
:1032100082041CE0521C5031082AA3D20B88AB4216
:1032200011D0521C082A9DD28B8AAB420BD0521C63
:10323000082A97D20B8DAB4205D0521C082A91D296
:103240008B8FAB42E6D102EB820107EB8104002CAD
:103250001CBFA178494586D0401C024602EB820182
:1032600007EB8101D8E782453CBF5FFA8AF58542CA
:103270000BD2207C2918C9B207F1A40000F0EDFAA6
:103280006D1CE068EDB28542F3D3207CFF284DD160
:10329000514607F1A40000F08AFAFF28207444D1B7
:1032A0004FF6FF702080FF20A0702074607C00F03B
:1032B000F8006074E6606660A660112001B0BDE8A9
:1032C000F08F02EB820307EB83041DE05B1C50329E
:1032D000082B92D214888C4212D05B1C082B8CD203
:1032E000948A8C420CD05B1C082B86D2148D8C42A5
:1032F00006D05B1C082BBFF480AF948F8C42E5D1C5
:1033000003EB830207EB8204002C1CBFA278FF2A88
:103310003FF474AF401C034603EB830207EB8202C9
:10332000D6E7112001B0BDE8F08F0126217CC4F85A
:103330000CA007F1A40000F077FA18B9032001B03F
:10334000BDE8F08FC8F804001FFA8AF101EB810094
:103350000005000CC01C88F802908010A8F800003E
:103360004EB1B9F1080F06D1B8F80000D8F8041032
:103370008000801F8880002001B0BDE8F08FF0B58C
:10338000DFF8B4532E8800240022002381B0864247
:103390001EBF0123AE8A86421ED02E8D0223864296
:1033A0001EBF0323AE8F864216D0B5F850600423AB
:1033B00086421EBF0523B5F8646086420CD0B5F87E
:1033C0007860062386421EBF0723B5F88C608642CC
:1033D00002D0052001B0F0BD03EB830605EB8606A5
:1033E0001CE0761C5033082EF3D21F88874211D080
:1033F000761C082EEDD29F8A87420BD0761C082EB1
:10340000E7D21F8D874205D0761C082EE1D29F8F10
:103410008742E6D106EB860305EB8306002ED8D063
:10342000B3788B4206D0521C164606EB860305EB9A
:103430008303D8E7706820B102F0E0F9040018BFF8
:103440000324F068002750B1307C3918C9B205F167
:10345000A40000F002FAF0687F1C8742F4D34FF614
:10346000FF703080FF20B0703074707C00F0F80086
:1034700070740020F0607060B06001B02046F0BD54
:10348000F0B50D460246072D1CBF082D072083B05E
:1034900040F08B80A84B1E8800200021002496421B
:1034A0001EBF01249E8A96421FD01E8D0224964282
:1034B0001EBF03249E8F964217D0B3F85060042499
:1034C00096421EBF0524B3F8646096421EBF0624D0
:1034D000B3F87860964208D0B3F88C60072496421F
:1034E00028D102E0B78F97420ED104EB840613EB8C
:1034F00086041FD0A678AE421FD0491C0C4604EBB0
:10350000840603EB860601E0641C5036082C11D2B9
:1035100037889742E9D0641C082C0BD2B78A9742AF
:10352000E3D0641C082C05D2378D9742DDD0641C93
:10353000082CD7D3052003B0F0BD6168002934D131
:10354000217C03F1A40000F06FF90FF21021D1E902
:103550000023CDE900238DF8025028B3E1680190E3
:1035600089B201EB81000005000CC01C8010ADF891
:1035700000009DF80200401E07280FD8DFE800F089
:10358000090E0E0E0E090B04019880880930800880
:1035900002E0012000E01420ADF80000211D684683
:1035A00002F002F9092800D1032003B0F0BD0000A9
:1035B000F0B50F460446072F1CBF082F072083B025
:1035C00040F0B7800FF29C105B4DD0E90023CDE9AD
:1035D000002300202A888DF802700021A2421EBF1D
:1035E0000121AA8AA24237D02A8D0221A2421EBFFF
:1035F0000321AA8FA2422FD0B5F850200421A24265
:103600001EBF0521B5F86420A24225D0B5F8782068
:103610000621A2421EBF0721B5F88C20A2421BD072
:10362000052003B0F0BD491C50320829F8D2138898
:10363000A34211D0491C0829F2D2938AA3420BD08D
:10364000491C0829ECD2138DA34205D0491C082936
:10365000E6D2938FA342E6D101EB810215EB8206FD
:10366000DED0B178B94206D0401C014601EB8102A0
:1036700005EB8202D9E7707CC00748BF002058D410
:10368000317C05F1A40000F0CFF810B9032003B09D
:10369000F0BDF168019089B201EB81000005000CDA
:1036A000C01C8010ADF800008DF802709DF802007B
:1036B000401E07280FD8DFE800F0090E0E0E0E0995
:1036C0000B04019880880930800802E0012000E0A6
:1036D0001420ADF80000726806F108036946204620
:1036E00002F094F8727CD5F8A01002F00603062BC5
:1036F00008BF491E28B902F0F90242F001027274B3
:1037000015E0112807D102F0FD0040F004007074AC
:10371000491C00200BE0862806D102F0FB0242F093
:103720000202491C727402E0072818BF0320C5F882
:10373000A01003B0F0BD0000D062002002F0E3B89A
:1037400002F0E3B81346002202F060B80000000067
:103750000000000000000000000000000000000069
:1037600000000000000000000000000070B500280C
:1037700018BF002919D0C3B1059C069D05FB04F6AE
:10378000B24222BF049AE61DB2EBD60F0DD3002C35
:1037900018BF002D09D0016043608460C560A1B2EC
:1037A000406802F0B4F8002070BD072070BDF0B58D
:1037B00081B004001CBF206800280D4631D060682D
:1037C00078B3FF27002619E0FF2F15D0B74212DA91
:1037D000206800281EBF60680028FF2F07D03946E8
:1037E00002F00DF918B16068394602F0B7F87F1C95
:1037F000FFB2B742ECDBFF27761CF6B2A068864228
:103800000FD26068314602F088F80028DCD0FF2F24
:1038100008BF3746F01B401CA842EDD1384601B026
:10382000F0BDFF2001B0F0BD30B581B004001CBF79
:10383000206800280D460DD06068002818BFFF2DB5
:1038400008D002F0DCF828B1E16820686943084438
:1038500001B030BD002001B030BD30B581B00400F2
:103860001CBF206800280D460ED06068002818BFD5
:10387000FF2D09D002F0C3F830B16068294601B0CD
:10388000BDE8304002F06AB801B030BD70B58AB012
:10389000054668460021002200230EC006C0688845
:1038A000DFF8F045ADF8040000F070FDADF802005F
:1038B0002878092800F2DA80DFE800F0051637548E
:1038C000606C9DD8C5C707208DF8000028798DF859
:1038D000080000208DF8090003909DF80A0040F0D0
:1038E00001008DF80A00B3E007208DF80000287968
:1038F0008DF8080000208DF80900A86803909DF855
:103900000A0040F001008DF80A00A068002800F0CD
:103910009F80A968884240F09B800020A060BDF88D
:103920000400E0800020039092E008208DF8000061
:1039300028798DF8080000208DF80900A868039008
:10394000E8680490A068002800F08280A968884296
:1039500040F07E800020A060E068401EE060002013
:10396000039075E007208DF8000028798DF8080095
:1039700001208DF809000020039069E008208DF8EF
:10398000000028798DF8080001208DF80900A8684A
:1039900004905DE009208DF80000A078002857D041
:1039A0004FF6FF763046FFF7C9FEB04250D13046A1
:1039B000FFF7C6FEB0424BD10020A070002105A841
:1039C000002200230EC006C00B208DF81400ADF8B5
:1039D0001860ADF816600025E078002804F11006A4
:1039E00000F0368056F8041B05A88847E0786D1C67
:1039F0008542F7DB2CE00A208DF80000A8680290D1
:103A0000A07828B30020A070002105A80022002380
:103A10000EC006C00C208DF814004FF6FF76ADF8EE
:103A20001860ADF8166004F11006A868079000252C
:103A3000E07868B156F8041B05A88847E0786D1C4B
:103A40008542F7DB04E0052000E006208DF8000049
:103A5000E0785FF0000504F1100638B156F8041B59
:103A600068468847E0786D1C8542F7DB0AB070BD78
:103A7000F0B585B0054668460021002200230EC03F
:103A800006C06888ADF8020001242878401E0B2883
:103A900000F2A280DFE800F0B60619304655616DED
:103AA0007B81859C8DF800402879DFF8E8633179C7
:103AB000421E9241D243D20F012868880CBF0127D1
:103AC000002702F062F83A4611E002208DF800006B
:103AD000DFF8C06328793179002814BF0120022063
:103AE0008DF808000122688802F04FF82A79717970
:103AF000688802F04AF870E003208DF80000DFF8D3
:103B000094034179688802F032F8002814BF01203C
:103B100002208DF80800A8798DF80C00A888ADF86F
:103B20000A005AE0DFF86C030179688802F01FF898
:103B3000002867D102208DF8000000208DF80800D1
:103B40004BE003208DF800008DF80810A8798DF85F
:103B50000C00A888ADF80A003FE007208DF80000AF
:103B6000A888ADF804008DF8091007208DF808002A
:103B700039E008208DF80000A888ADF804008DF821
:103B8000091007208DF80800A86804902BE0062093
:103B90008DF80000686802901FE005208DF8000095
:103BA0001BE003208DF80000DFF8E8024179688807
:103BB00001F0DDFF002814BF012002208DF808006D
:103BC00000208DF80C0041F20110ADF80A0004E06D
:103BD00004208DF8000000E00024688800F0F0FA6E
:103BE000ADF8040074B1DFF8AC62F078002406F19F
:103BF000100538B155F8041B68468847F078641CF6
:103C00008442F7DB05B0F0BD70B586B00446684667
:103C10000021002200230EC006C06088ADF8040019
:103C200000F0B4FBADF802002078092836D8DFE8B0
:103C300000F005050F1317212545292D07208DF8C4
:103C4000000000208DF8090008208DF8080025E00C
:103C50000D208DF8000021E00E208DF800001DE001
:103C600007208DF8000000208DF8090005208DF850
:103C7000080013E00F208DF800000FE010208DF8F1
:103C800000000BE005208DF8000007E006208DF80D
:103C90000000A0680290A088ADF802000024DFF8C0
:103CA000F45195F8030005F1100638B156F8041BDD
:103CB00068468847E878641C8442F7DB06B070BD2C
:103CC00070B5054686B0287818B101280AD006B02C
:103CD00070BDDFF8C001007850B3E88800F0BDFB8C
:103CE00006B070BDDFF8AC4168886179012201F04F
:103CF0004CFF68460021002200230EC006C06888E1
:103D0000ADF8020004F11006688800F059FAADF829
:103D10000400002500208DF8000094F8030038B15D
:103D200056F8041B68468847E0786D1C8542F7DB2F
:103D300006B070BD10B50446DFF85801007850B1E8
:103D4000204600F0FDF8204600F004FE2046BDE8C5
:103D5000104002F08EB810BD10B501F07FFC28BBFA
:103D6000FFF731F810BB00F0C2FDF8B900F0CAFF50
:103D7000E0B901F0F5FFC8B901F0C9FAB0B900F037
:103D800004FA98B9DFF80C414FF6FF70E08000208C
:103D9000A06018202071607101F0D6FE18282071F3
:103DA00004D001F0D1FE1828607101D1032010BDAC
:103DB0000020607001202070002010BDDFF8D410BA
:103DC0000A780AB908207047CA78032A01DB042060
:103DD000704701EB82031861501CC87000207047C7
:103DE000DFF8B0100978002918BF00F0BDBD082029
:103DF000704700F000BEDFF89C000078002818BF74
:103E000002F0A7B8704700002DE9F041214C20785E
:103E100086B018B9082006B0BDE8F0810120A07076
:103E20004FF6FF752846FFF789FC0646AE421BD1C8
:103E30000020A07000216846002200230EC006C0AA
:103E40000B208DF80000ADF80450ADF802500027AB
:103E5000E07804F1100838B158F8041B6846884728
:103E6000E0787F1C8742F7DBAE420ED0207818B195
:103E7000304600F0F2FA18B1032006B0BDE8F08138
:103E80003046FFF75BFC0646EEE7002006B0BDE8D3
:103E9000F0810000586E00202DE9E0478846FF279A
:103EA0000546B8F1000F1CBF4FF6FF794D4581B0B4
:103EB00042D0DFF8446696F8F010012201F065FE6A
:103EC00096F8F010284601F052FEA0B10027B01C71
:103ED0000188A9421EBF7F1C8189A9421EBF7F1C89
:103EE000018BA94208D0818C7F1CA94204D07F1C81
:103EF0003030142FECD3FF27FFB2FF2F0ED1002755
:103F000006F1020A96F8F0103AF80C0B01F02FFEB9
:103F100018B17F1C142FF5D3FF27FFB2FF2F0BD052
:103F200007EB47008000311826F800904D80081DEF
:103F300041460722FEF744F8384601B0BDE8E08765
:103F40000188102900D07047F0B5001D93B0B0E88B
:103F5000FC1006A9A1E8FC10FCC8FCC19DF81C00DF
:103F600040084FF6FF7503282C464AD001F0EBFBC2
:103F70009DF81C00400802D002281AD041D26A469F
:103F800002A9072001F0E4FB00283AD00198113083
:103F9000F5D09DF81C1002784908B1EB520FEED114
:103FA000411C06220DF11D0001F0FAFF0028E6D1A8
:103FB00025E06A4602A9072001F0CAFB08B39DF874
:103FC0001C0040080228F4D10DF11D0005A902785B
:103FD0000A7042784A7082788A7008A9032203A87E
:103FE000FDF7FEFF019804AA03A9401C00F086FA21
:103FF000032204A905A801F0D3FF0028D9D1BDF8F8
:104000000840BDF8180007A9FFF746FFAC4233D0BF
:10401000DFF8E454BDF8186095F8F010304601F070
:10402000A6FDA0B10020A91C0A88B2421EBF401CF8
:104030008A89B2421EBF401C0A8BB24208D08A8CC9
:10404000401CB24204D0401C30311428ECD3FF2075
:10405000C0B2FF2803D000EB400188002C52BDF80D
:104060001800ADF8020001208DF800006846FFF747
:1040700027FE684601F058FE13B0F0BD2DE9F0416F
:10408000044688B02078002804BF2079072873D11F
:10409000608805AA0721FFF71BF800286CD101F002
:1040A00052FB03AA6946072001F052FB002863D0A7
:1040B000B4F80280BDF800108845F2D0069F049E37
:1040C0000020791C0A7852B94A7842B98A7832B904
:1040D000CA7822B9001D091D1028F3D3E1E7102288
:1040E000711C781C01F05CFF451EAD4117F11100F9
:1040F00018BF16F1110010D0787C717C4008B0EB2D
:10410000510F0AD1062206F1120107F1120001F047
:1041100047FF401E8041C00F00E0002050EAD570EC
:10412000BFD0DFF8D403002102461688B0451EBF79
:10413000491C9689B0451EBF491C168BB0451ED040
:10414000968C491CB0451AD0491C30321429ECD346
:104150004FF6FF70ADF8060000208DF8040060886F
:10416000ADF80800BDF80000ADF80A0001A8FFF79F
:10417000A7FD01A801F0D8FD08B0BDE8F08101EB72
:10418000410200EB82004088E4E710B5DFF86843A5
:10419000182084F8F0000521A01C4FF6FF72028061
:1041A0008281028382843030491EF8D101F0CCFC38
:1041B000182884F8F00001D1032010BD002010BDA4
:1041C00030B5DFF8345395F8F01081B0044601F0B3
:1041D000CEFCA0B10020A91C0A88A2421EBF401C30
:1041E0008A89A2421EBF401C0A8BA24208D08A8C38
:1041F000401CA24204D0401C30311428ECD3FF20D4
:10420000C0B2FF281DBF00EB40018800285A4FF6BE
:10421000FF7001B030BD70B5DFF8DC520C4695F888
:10422000F010064601F0A3FCA0B10021A81C0288F2
:10423000B2421EBF491C8289B2421EBF491C028B7A
:10424000B24208D0828C491CB24204D0491C3030A2
:104250001429ECD3FF21C9B2FF290AD001EB410296
:1042600005EB82012046091D0722FDF7A9FE00206B
:1042700070BD052070BD00B581B00288130004BF79
:104280008378002B13D1C378002B04BF0379002B54
:104290000DD14379002B04BF8379002B07D1C3795B
:1042A000002B04BF037A002B01D1437A13B10B8892
:1042B0009A4202D0002001B000BD0822891C801C57
:1042C00001F06EFE401E8041C00F01B000BD70B510
:1042D00084B0044601F037FA01AA6946072001F0CC
:1042E00037FA00284ED02588029E290004BFA17805
:1042F000002906F1460013D1E178002904BF217995
:1043000000290DD16179002904BFA179002907D1C5
:10431000E179002904BF217A002901D1617A41B1F4
:104320000288954205D1811C0822A01C01F038FEAC
:1043300020B3290004BFA178002906F12A0013D177
:10434000E178002904BF217900290DD16179002984
:1043500004BFA179002907D1E179002901BF217AA1
:104360000029617A0029B7D001888D42B4D1811C1F
:104370000822A01C01F014FE0028ADD1BDF80000F9
:1043800004B070BD4FF6FF7004B070BD20B4DFF80C
:104390006821002113461D88A84206D101EB410087
:1043A00002EB8000408820BC70479D89491CA842D0
:1043B0001EBF491C1D8BA8421EBF491C9D8CA842D4
:1043C000ECD0491C30331429E5D320BC4FF6FF70E4
:1043D00070470188002904BF8178002901D001209D
:1043E0007047C178002904BF01790029F7D14179CC
:1043F000002904BF81790029F1D1C179002901BFC9
:10440000017A0029407A0028E9D1704770B53A4D09
:104410000C4695F8F010064601F0A9FBA0B100206B
:10442000A91C0A88B2421EBF401C8A89B2421EBF24
:10443000401C0A8BB24208D08A8C401CB24204D085
:10444000401C30311428ECD3FF20C0B2FF2803D029
:1044500000EB400188002C5270BDF0B5264C81B0B5
:10446000002122461588A8421EBF491C9589A842F2
:104470001EBF491C158BA84237D0958C491CA842F9
:1044800033D0491C30321429ECD34FF6FF75FEF7B8
:1044900032FD4FF6FF77BD42064623D016BB94F897
:1044A000F010284601F063FBA0B10020A11C0A888F
:1044B000AA421EBF401C8A89AA421EBF401C0A8B0A
:1044C000AA4208D08A8C401CAA4204D0401C303139
:1044D0001428ECD3FF20C0B2FF2803D000EB40012A
:1044E00088002752304601B0F0BD01EB410204EBD9
:1044F00082014D88CBE700003C67002030B58DB0CD
:104500000D4614460C3069460422C37801F8013B7D
:10451000521E837801F8013B437801F8013B10F803
:10452000043901F8013BF0D10D2104A801F06AFD26
:1045300028788DF81F0068788DF81E00A8788DF80F
:104540001D00684643DF9DF82F0020709DF82E0067
:1045500060709DF82D00A0700DB030BD2DE9F047C2
:10456000DFF8A0748046387A0D46284384B091461F
:104570001E4608BF05205DD0280014BF0021394623
:10458000404600F074FD04460022862C924603D07B
:10459000112C03D06CB903E0012201E04FF0010AB5
:1045A000B97A404601F0F1FA797A5246404601F074
:1045B000ECFAC6B1002C3CD0112C22D06846002168
:1045C000002200230EC0ADF802800D2C019408BF1C
:1045D0000B2003D0862C0CBF0A2009208DF8000088
:1045E0006846FFF745FA002C1CBF082C0D2C20D084
:1045F000112C06D0862C10D043F202018C4218D028
:1046000016E0397B2A46404601F0BFFAF97A4A465D
:10461000404601F0BAFA00240BE0397B2A464046B6
:1046200001F0B3FAF97A4A46404601F0AEFA00E0EA
:104630000324204604B0BDE8F087F0B583B00446FB
:1046400001F05BFA0128DFF8BC5319D12046FFF7CF
:10465000B7FD4FF6FF71884212D0E97B0122204658
:1046600001F093FA68460021002200230EC00C20BE
:104670008DF80000ADF802406846FFF7F9F904E054
:10468000E97B0022204601F080FA287A38B1E97BE4
:10469000204601F06CFA10B92A69294601E000228F
:1046A0000021204600F04FFB064600220027862E00
:1046B00003D0112E03D0B6B902E0012200E0012799
:1046C000A97B204601F061FA697B3A46204601F059
:1046D0005CFAA97A0022204601F057FA697A002292
:1046E000204601F052FA002E18BF112E14D0684651
:1046F0000021002200230EC00D2EADF802400196CD
:1047000008BF0B2003D0862E0CBF0A2009208DF88D
:1047100000006846FFF7ACF903B0F0BD10B50446E1
:1047200084B0207809282FD8DFE800F0050A21217D
:104730002121212121216088FFF77FFF04B010BDD6
:10474000DFF8C002027A00215AB10078237900F024
:1047500001029A4221BF400800F0010062799042B4
:1047600000D20121608801230022FFF7F7FE2078A4
:104770008DF800006088ADF80200D4E90101CDE9B0
:1047800001016846FFF774F904B010BD2DE9F14F3F
:10479000A6B001F00FFA00286CD003A801F0CEF902
:1047A00014A803A94422FDF71BFC1498002861D02B
:1047B00015AC8046DFF84C629DF89810208801F017
:1047C000D6F9002852D0F17A208801F0D0F982463B
:1047D000317B208801F0CBF90546307AB4F800909F
:1047E000284343D0002D524614BF0021314648468D
:1047F00000F03DFC07460022862F934603D0112F80
:1048000003D06FB903E0012201E04FF0010BB17A50
:10481000484601F0BAF9717A5A46484601F0B5F9AE
:1048200027B3112F18D068460021002200230EC0A4
:10483000ADF802900D2F019708BF0B2003D0862FF3
:104840000CBF0A2009208DF800006846FFF710F918
:10485000112F18BF862F09D1317B2A46484601F017
:1048600094F9F17A5246484601F08FF9A41CB8F148
:104870000108A1D127B0BDE8F08F70B5A2B0044601
:1048800001F098F9B0B1684601F058F911A86946ED
:104890004422FDF7A5FB119860B112AD06462888A9
:1048A000214601F064F910B12888FFF7C6FEAD1C5F
:1048B000761EF4D122B070BD0078072800D9704769
:1048C00010B5DFE800F00B0B0B0B0B0B0B044D4C82
:1048D000A07BFFF7D2FFA07AFFF758FF494C607B1F
:1048E000FFF7CBFF607ABDE810404FE710BD10B571
:1048F000444C607A182802D101F026F96072A07A3F
:10490000182802D101F020F9A072E07A182802D10B
:1049100001F01AF9E072207B182802D101F014F995
:104920002073607B182802D101F00EF96073A07B20
:10493000182802D101F008F9A073E07B182802D1F1
:1049400001F002F9E073E07B182801D1032010BDCB
:10495000002010BD00B581B000F0A0FB2948407ACE
:1049600001B05DF804EB11E710B5010003D1254952
:104970000020087210BD0878820701D402062AD4EC
:10498000C0F30212052A26DA00F0F202322A22D0FF
:104990004A788B7893421ED3072A1CDB112B1ADA34
:1049A000CA78C2F38003002B02BF0B79C3F38004E3
:1049B000002C10D1C2F3C004002C04BFC3F3C00408
:1049C000002C08D1C00702F0030206D4002A04BF5D
:1049D0000320034206D0072010BD002A04BF032095
:1049E0000342F8D0074C20460522FDF7E9FA0120E2
:1049F0002072002010BD097881F001020149C97BB5
:104A000001F0C3B8E03F002030B5044683B0207801
:104A1000002804BF2079072812D10FF654012CC9B1
:104A200068462CC06088FFF7B1FCADF802006088D2
:104A3000ADF804006846FFF771FE684601F089F999
:104A400003B030BD2DE9F043DFF8106881B089462E
:104A5000317805461746984601F097F8089C8FB1C3
:104A600071784246284601F090F8B17822462846EF
:104A700001F08BF86CB14946284601B0BDE8F0431F
:104A8000FFF7C4BC2CB1484601B0BDE8F043FFF7C6
:104A9000E4BC01B0BDE8F083F0B5044689B004F190
:104AA0000C00FFF714FC218800264FF6FF75ADF8C7
:104AB0000210A84204BF2088FFF782FBA84212D050
:104AC00006AA0721FEF704FB68B9079800F1340530
